{
  "contractName": "OrderBook",
  "abi": [
    {
      "constant": true,
      "inputs": [
        {
          "name": "data",
          "type": "uint256[]"
        },
        {
          "name": "indices",
          "type": "uint256[]"
        }
      ],
      "name": "sortWithIndex",
      "outputs": [
        {
          "name": "",
          "type": "uint256[]"
        }
      ],
      "payable": false,
      "stateMutability": "pure",
      "type": "function",
      "signature": "0x210ec488"
    },
    {
      "constant": true,
      "inputs": [
        {
          "name": "",
          "type": "uint256"
        }
      ],
      "name": "_history",
      "outputs": [
        {
          "name": "buyer",
          "type": "address"
        },
        {
          "name": "seller",
          "type": "address"
        },
        {
          "name": "averagePrice",
          "type": "uint256"
        },
        {
          "name": "quantity",
          "type": "uint256"
        },
        {
          "name": "timeStamp",
          "type": "uint256"
        }
      ],
      "payable": false,
      "stateMutability": "view",
      "type": "function",
      "signature": "0x246161b4"
    },
    {
      "constant": true,
      "inputs": [
        {
          "name": "",
          "type": "uint256"
        }
      ],
      "name": "_offers",
      "outputs": [
        {
          "name": "orderType",
          "type": "uint8"
        },
        {
          "name": "owner",
          "type": "address"
        },
        {
          "name": "price",
          "type": "uint256"
        },
        {
          "name": "quantity",
          "type": "uint256"
        },
        {
          "name": "timeStamp",
          "type": "uint256"
        },
        {
          "name": "matchedTimeStamp",
          "type": "uint256"
        }
      ],
      "payable": false,
      "stateMutability": "view",
      "type": "function",
      "signature": "0x2d461c41"
    },
    {
      "constant": true,
      "inputs": [],
      "name": "_aud",
      "outputs": [
        {
          "name": "",
          "type": "address"
        }
      ],
      "payable": false,
      "stateMutability": "view",
      "type": "function",
      "signature": "0x5b14e6c5"
    },
    {
      "constant": true,
      "inputs": [],
      "name": "_stats",
      "outputs": [
        {
          "name": "",
          "type": "address"
        }
      ],
      "payable": false,
      "stateMutability": "view",
      "type": "function",
      "signature": "0x5f712dbf"
    },
    {
      "constant": false,
      "inputs": [],
      "name": "renounceOwnership",
      "outputs": [],
      "payable": false,
      "stateMutability": "nonpayable",
      "type": "function",
      "signature": "0x715018a6"
    },
    {
      "constant": true,
      "inputs": [],
      "name": "owner",
      "outputs": [
        {
          "name": "",
          "type": "address"
        }
      ],
      "payable": false,
      "stateMutability": "view",
      "type": "function",
      "signature": "0x8da5cb5b"
    },
    {
      "constant": true,
      "inputs": [],
      "name": "isOwner",
      "outputs": [
        {
          "name": "",
          "type": "bool"
        }
      ],
      "payable": false,
      "stateMutability": "view",
      "type": "function",
      "signature": "0x8f32d59b"
    },
    {
      "constant": true,
      "inputs": [],
      "name": "_tradingZone",
      "outputs": [
        {
          "name": "",
          "type": "string"
        }
      ],
      "payable": false,
      "stateMutability": "view",
      "type": "function",
      "signature": "0x957be070"
    },
    {
      "constant": true,
      "inputs": [
        {
          "name": "data",
          "type": "uint256[]"
        }
      ],
      "name": "sort",
      "outputs": [
        {
          "name": "",
          "type": "uint256[]"
        }
      ],
      "payable": false,
      "stateMutability": "pure",
      "type": "function",
      "signature": "0x9ec8b026"
    },
    {
      "constant": true,
      "inputs": [
        {
          "name": "",
          "type": "uint256"
        }
      ],
      "name": "_asks",
      "outputs": [
        {
          "name": "orderType",
          "type": "uint8"
        },
        {
          "name": "owner",
          "type": "address"
        },
        {
          "name": "price",
          "type": "uint256"
        },
        {
          "name": "quantity",
          "type": "uint256"
        },
        {
          "name": "timeStamp",
          "type": "uint256"
        },
        {
          "name": "matchedTimeStamp",
          "type": "uint256"
        }
      ],
      "payable": false,
      "stateMutability": "view",
      "type": "function",
      "signature": "0xa1f6a1ff"
    },
    {
      "constant": true,
      "inputs": [
        {
          "name": "data",
          "type": "uint256[]"
        }
      ],
      "name": "reverseSort",
      "outputs": [
        {
          "name": "",
          "type": "uint256[]"
        }
      ],
      "payable": false,
      "stateMutability": "pure",
      "type": "function",
      "signature": "0xaa448997"
    },
    {
      "constant": true,
      "inputs": [],
      "name": "_water",
      "outputs": [
        {
          "name": "",
          "type": "address"
        }
      ],
      "payable": false,
      "stateMutability": "view",
      "type": "function",
      "signature": "0xc330a297"
    },
    {
      "constant": true,
      "inputs": [
        {
          "name": "data",
          "type": "uint256[]"
        },
        {
          "name": "indices",
          "type": "uint256[]"
        }
      ],
      "name": "reverseSortWithIndex",
      "outputs": [
        {
          "name": "",
          "type": "uint256[]"
        }
      ],
      "payable": false,
      "stateMutability": "pure",
      "type": "function",
      "signature": "0xd01fbaf9"
    },
    {
      "constant": false,
      "inputs": [
        {
          "name": "newOwner",
          "type": "address"
        }
      ],
      "name": "transferOwnership",
      "outputs": [],
      "payable": false,
      "stateMutability": "nonpayable",
      "type": "function",
      "signature": "0xf2fde38b"
    },
    {
      "inputs": [
        {
          "name": "statsContract",
          "type": "address"
        },
        {
          "name": "waterContract",
          "type": "address"
        },
        {
          "name": "audContract",
          "type": "address"
        },
        {
          "name": "tradingZone",
          "type": "string"
        }
      ],
      "payable": false,
      "stateMutability": "nonpayable",
      "type": "constructor",
      "signature": "constructor"
    },
    {
      "anonymous": false,
      "inputs": [
        {
          "indexed": false,
          "name": "_stats",
          "type": "address"
        }
      ],
      "name": "OrderAdded",
      "type": "event",
      "signature": "0x9b0548ddacd7b2f31852ad0ce5af1d780efea21568275e609c14741246bfaeea"
    },
    {
      "anonymous": false,
      "inputs": [
        {
          "indexed": true,
          "name": "owner",
          "type": "address"
        },
        {
          "indexed": false,
          "name": "price",
          "type": "uint256"
        },
        {
          "indexed": false,
          "name": "quantity",
          "type": "uint256"
        }
      ],
      "name": "Matched",
      "type": "event",
      "signature": "0x77c1df43cb7be54edd24d14189148a7ab0e489aa034e7887a49aabeea2e51f18"
    },
    {
      "anonymous": false,
      "inputs": [
        {
          "indexed": true,
          "name": "previousOwner",
          "type": "address"
        }
      ],
      "name": "OwnershipRenounced",
      "type": "event",
      "signature": "0xf8df31144d9c2f0f6b59d69b8b98abd5459d07f2742c4df920b25aae33c64820"
    },
    {
      "anonymous": false,
      "inputs": [
        {
          "indexed": true,
          "name": "previousOwner",
          "type": "address"
        },
        {
          "indexed": true,
          "name": "newOwner",
          "type": "address"
        }
      ],
      "name": "OwnershipTransferred",
      "type": "event",
      "signature": "0x8be0079c531659141344cd1fd0a4f28419497f9722a3daafe3b4186f6b6457e0"
    },
    {
      "constant": true,
      "inputs": [
        {
          "name": "from",
          "type": "uint256"
        },
        {
          "name": "to",
          "type": "uint256"
        }
      ],
      "name": "averageValueTradedInPeriod",
      "outputs": [
        {
          "name": "",
          "type": "uint256"
        }
      ],
      "payable": false,
      "stateMutability": "view",
      "type": "function",
      "signature": "0x0c38d8c0"
    },
    {
      "constant": true,
      "inputs": [
        {
          "name": "from",
          "type": "uint256"
        },
        {
          "name": "to",
          "type": "uint256"
        }
      ],
      "name": "totalValueTradedInPeriod",
      "outputs": [
        {
          "name": "",
          "type": "uint256"
        }
      ],
      "payable": false,
      "stateMutability": "view",
      "type": "function",
      "signature": "0x6d748100"
    },
    {
      "constant": true,
      "inputs": [
        {
          "name": "from",
          "type": "uint256"
        },
        {
          "name": "to",
          "type": "uint256"
        }
      ],
      "name": "totalVolumeTradedInPeriod",
      "outputs": [
        {
          "name": "",
          "type": "uint256"
        }
      ],
      "payable": false,
      "stateMutability": "view",
      "type": "function",
      "signature": "0xc08a9565"
    },
    {
      "constant": false,
      "inputs": [
        {
          "name": "buyer",
          "type": "address"
        },
        {
          "name": "seller",
          "type": "address"
        },
        {
          "name": "averagePrice",
          "type": "uint256"
        },
        {
          "name": "quantity",
          "type": "uint256"
        },
        {
          "name": "timeStamp",
          "type": "uint256"
        }
      ],
      "name": "manualHistoryAdd",
      "outputs": [],
      "payable": false,
      "stateMutability": "nonpayable",
      "type": "function",
      "signature": "0x7dbe0f6a"
    },
    {
      "constant": true,
      "inputs": [
        {
          "name": "numberOfTrades",
          "type": "uint256"
        }
      ],
      "name": "getHistory",
      "outputs": [
        {
          "name": "",
          "type": "address[]"
        },
        {
          "name": "",
          "type": "address[]"
        },
        {
          "name": "",
          "type": "uint256[]"
        },
        {
          "name": "",
          "type": "uint256[]"
        },
        {
          "name": "",
          "type": "uint256[]"
        }
      ],
      "payable": false,
      "stateMutability": "view",
      "type": "function",
      "signature": "0xc8691b2a"
    },
    {
      "constant": false,
      "inputs": [
        {
          "name": "price",
          "type": "uint256"
        },
        {
          "name": "quantity",
          "type": "uint256"
        }
      ],
      "name": "addSellLimitOrder",
      "outputs": [],
      "payable": false,
      "stateMutability": "nonpayable",
      "type": "function",
      "signature": "0xe20d966b"
    },
    {
      "constant": false,
      "inputs": [
        {
          "name": "price",
          "type": "uint256"
        },
        {
          "name": "quantity",
          "type": "uint256"
        }
      ],
      "name": "addBuyLimitOrder",
      "outputs": [],
      "payable": false,
      "stateMutability": "nonpayable",
      "type": "function",
      "signature": "0x035bbaba"
    },
    {
      "constant": true,
      "inputs": [],
      "name": "getOrderBook",
      "outputs": [
        {
          "name": "",
          "type": "uint8[]"
        },
        {
          "name": "",
          "type": "address[]"
        },
        {
          "name": "",
          "type": "uint256[]"
        },
        {
          "name": "",
          "type": "uint256[]"
        },
        {
          "name": "",
          "type": "uint256[]"
        }
      ],
      "payable": false,
      "stateMutability": "view",
      "type": "function",
      "signature": "0xb248c4ef"
    },
    {
      "constant": true,
      "inputs": [
        {
          "name": "numberOfOrders",
          "type": "uint256"
        }
      ],
      "name": "getOrderBookAsks",
      "outputs": [
        {
          "name": "",
          "type": "uint8[]"
        },
        {
          "name": "",
          "type": "address[]"
        },
        {
          "name": "",
          "type": "uint256[]"
        },
        {
          "name": "",
          "type": "uint256[]"
        },
        {
          "name": "",
          "type": "uint256[]"
        }
      ],
      "payable": false,
      "stateMutability": "view",
      "type": "function",
      "signature": "0xaeeb3425"
    },
    {
      "constant": true,
      "inputs": [
        {
          "name": "numberOfOrders",
          "type": "uint256"
        }
      ],
      "name": "getOrderBookOffers",
      "outputs": [
        {
          "name": "",
          "type": "uint8[]"
        },
        {
          "name": "",
          "type": "address[]"
        },
        {
          "name": "",
          "type": "uint256[]"
        },
        {
          "name": "",
          "type": "uint256[]"
        },
        {
          "name": "",
          "type": "uint256[]"
        }
      ],
      "payable": false,
      "stateMutability": "view",
      "type": "function",
      "signature": "0x81552d21"
    },
    {
      "constant": true,
      "inputs": [],
      "name": "lowestAsk",
      "outputs": [
        {
          "name": "",
          "type": "address"
        },
        {
          "name": "",
          "type": "uint256"
        },
        {
          "name": "",
          "type": "uint256"
        },
        {
          "name": "",
          "type": "uint256"
        }
      ],
      "payable": false,
      "stateMutability": "view",
      "type": "function",
      "signature": "0xae87820a"
    },
    {
      "constant": true,
      "inputs": [],
      "name": "highestBid",
      "outputs": [
        {
          "name": "",
          "type": "address"
        },
        {
          "name": "",
          "type": "uint256"
        },
        {
          "name": "",
          "type": "uint256"
        },
        {
          "name": "",
          "type": "uint256"
        }
      ],
      "payable": false,
      "stateMutability": "view",
      "type": "function",
      "signature": "0xd57bde79"
    }
  ],
  "bytecode": "0x60806040523480156200001157600080fd5b5060405162004c3538038062004c3583398101806040528101908080519060200190929190805190602001909291908051906020019092919080518201929190505050336000806101000a81548173ffffffffffffffffffffffffffffffffffffffff021916908373ffffffffffffffffffffffffffffffffffffffff16021790555081600260006101000a81548173ffffffffffffffffffffffffffffffffffffffff021916908373ffffffffffffffffffffffffffffffffffffffff16021790555083600360006101000a81548173ffffffffffffffffffffffffffffffffffffffff021916908373ffffffffffffffffffffffffffffffffffffffff16021790555082600160006101000a81548173ffffffffffffffffffffffffffffffffffffffff021916908373ffffffffffffffffffffffffffffffffffffffff16021790555080600790805190602001906200016f9291906200017a565b505050505062000229565b828054600181600116156101000203166002900490600052602060002090601f016020900481019282601f10620001bd57805160ff1916838001178555620001ee565b82800160010185558215620001ee579182015b82811115620001ed578251825591602001919060010190620001d0565b5b509050620001fd919062000201565b5090565b6200022691905b808211156200022257600081600090555060010162000208565b5090565b90565b6149fc80620002396000396000f30060806040526004361061015f576000357c0100000000000000000000000000000000000000000000000000000000900463ffffffff168063035bbaba146101645780630c38d8c01461019b578063210ec488146101e6578063246161b4146102e45780632d461c41146103995780635b14e6c5146104375780635f712dbf1461048e5780636d748100146104e5578063715018a6146105305780637dbe0f6a1461054757806381552d21146105c85780638da5cb5b1461076a5780638f32d59b146107c1578063957be070146107f05780639ec8b02614610880578063a1f6a1ff1461093b578063aa448997146109d9578063ae87820a14610a94578063aeeb342514610b00578063b248c4ef14610ca2578063c08a956514610e2e578063c330a29714610e79578063c8691b2a14610ed0578063d01fbaf914611072578063d57bde7914611170578063e20d966b146111dc578063f2fde38b14611213575b600080fd5b34801561017057600080fd5b506101996004803603810190808035906020019092919080359060200190929190505050611256565b005b3480156101a757600080fd5b506101d06004803603810190808035906020019092919080359060200190929190505050611d0b565b6040518082815260200191505060405180910390f35b3480156101f257600080fd5b5061028d6004803603810190808035906020019082018035906020019080806020026020016040519081016040528093929190818152602001838360200280828437820191505050505050919291929080359060200190820180359060200190808060200260200160405190810160405280939291908181526020018383602002808284378201915050505050509192919290505050611dfc565b6040518080602001828103825283818151815260200191508051906020019060200280838360005b838110156102d05780820151818401526020810190506102b5565b505050509050019250505060405180910390f35b3480156102f057600080fd5b5061030f60048036038101908080359060200190929190505050611e18565b604051808673ffffffffffffffffffffffffffffffffffffffff1673ffffffffffffffffffffffffffffffffffffffff1681526020018573ffffffffffffffffffffffffffffffffffffffff1673ffffffffffffffffffffffffffffffffffffffff1681526020018481526020018381526020018281526020019550505050505060405180910390f35b3480156103a557600080fd5b506103c460048036038101908080359060200190929190505050611e9d565b604051808760018111156103d457fe5b60ff1681526020018673ffffffffffffffffffffffffffffffffffffffff1673ffffffffffffffffffffffffffffffffffffffff168152602001858152602001848152602001838152602001828152602001965050505050505060405180910390f35b34801561044357600080fd5b5061044c611f15565b604051808273ffffffffffffffffffffffffffffffffffffffff1673ffffffffffffffffffffffffffffffffffffffff16815260200191505060405180910390f35b34801561049a57600080fd5b506104a3611f3b565b604051808273ffffffffffffffffffffffffffffffffffffffff1673ffffffffffffffffffffffffffffffffffffffff16815260200191505060405180910390f35b3480156104f157600080fd5b5061051a6004803603810190808035906020019092919080359060200190929190505050611f61565b6040518082815260200191505060405180910390f35b34801561053c57600080fd5b5061054561201e565b005b34801561055357600080fd5b506105c6600480360381019080803573ffffffffffffffffffffffffffffffffffffffff169060200190929190803573ffffffffffffffffffffffffffffffffffffffff169060200190929190803590602001909291908035906020019092919080359060200190929190505050612167565b005b3480156105d457600080fd5b506105f360048036038101908080359060200190929190505050612340565b60405180806020018060200180602001806020018060200186810386528b818151815260200191508051906020019060200280838360005b8381101561064657808201518184015260208101905061062b565b5050505090500186810385528a818151815260200191508051906020019060200280838360005b8381101561068857808201518184015260208101905061066d565b50505050905001868103845289818151815260200191508051906020019060200280838360005b838110156106ca5780820151818401526020810190506106af565b50505050905001868103835288818151815260200191508051906020019060200280838360005b8381101561070c5780820151818401526020810190506106f1565b50505050905001868103825287818151815260200191508051906020019060200280838360005b8381101561074e578082015181840152602081019050610733565b505050509050019a505050505050505050505060405180910390f35b34801561077657600080fd5b5061077f6126d4565b604051808273ffffffffffffffffffffffffffffffffffffffff1673ffffffffffffffffffffffffffffffffffffffff16815260200191505060405180910390f35b3480156107cd57600080fd5b506107d66126fd565b604051808215151515815260200191505060405180910390f35b3480156107fc57600080fd5b50610805612754565b6040518080602001828103825283818151815260200191508051906020019080838360005b8381101561084557808201518184015260208101905061082a565b50505050905090810190601f1680156108725780820380516001836020036101000a031916815260200191505b509250505060405180910390f35b34801561088c57600080fd5b506108e4600480360381019080803590602001908201803590602001908080602002602001604051908101604052809392919081815260200183836020028082843782019150505050505091929192905050506127f2565b6040518080602001828103825283818151815260200191508051906020019060200280838360005b8381101561092757808201518184015260208101905061090c565b505050509050019250505060405180910390f35b34801561094757600080fd5b506109666004803603810190808035906020019092919050505061280c565b6040518087600181111561097657fe5b60ff1681526020018673ffffffffffffffffffffffffffffffffffffffff1673ffffffffffffffffffffffffffffffffffffffff168152602001858152602001848152602001838152602001828152602001965050505050505060405180910390f35b3480156109e557600080fd5b50610a3d60048036038101908080359060200190820180359060200190808060200260200160405190810160405280939291908181526020018383602002808284378201915050505050509192919290505050612884565b6040518080602001828103825283818151815260200191508051906020019060200280838360005b83811015610a80578082015181840152602081019050610a65565b505050509050019250505060405180910390f35b348015610aa057600080fd5b50610aa961289e565b604051808573ffffffffffffffffffffffffffffffffffffffff1673ffffffffffffffffffffffffffffffffffffffff16815260200184815260200183815260200182815260200194505050505060405180910390f35b348015610b0c57600080fd5b50610b2b600480360381019080803590602001909291905050506129ab565b60405180806020018060200180602001806020018060200186810386528b818151815260200191508051906020019060200280838360005b83811015610b7e578082015181840152602081019050610b63565b5050505090500186810385528a818151815260200191508051906020019060200280838360005b83811015610bc0578082015181840152602081019050610ba5565b50505050905001868103845289818151815260200191508051906020019060200280838360005b83811015610c02578082015181840152602081019050610be7565b50505050905001868103835288818151815260200191508051906020019060200280838360005b83811015610c44578082015181840152602081019050610c29565b50505050905001868103825287818151815260200191508051906020019060200280838360005b83811015610c86578082015181840152602081019050610c6b565b505050509050019a505050505050505050505060405180910390f35b348015610cae57600080fd5b50610cb7612d3f565b60405180806020018060200180602001806020018060200186810386528b818151815260200191508051906020019060200280838360005b83811015610d0a578082015181840152602081019050610cef565b5050505090500186810385528a818151815260200191508051906020019060200280838360005b83811015610d4c578082015181840152602081019050610d31565b50505050905001868103845289818151815260200191508051906020019060200280838360005b83811015610d8e578082015181840152602081019050610d73565b50505050905001868103835288818151815260200191508051906020019060200280838360005b83811015610dd0578082015181840152602081019050610db5565b50505050905001868103825287818151815260200191508051906020019060200280838360005b83811015610e12578082015181840152602081019050610df7565b505050509050019a505050505050505050505060405180910390f35b348015610e3a57600080fd5b50610e636004803603810190808035906020019092919080359060200190929190505050613278565b6040518082815260200191505060405180910390f35b348015610e8557600080fd5b50610e8e613335565b604051808273ffffffffffffffffffffffffffffffffffffffff1673ffffffffffffffffffffffffffffffffffffffff16815260200191505060405180910390f35b348015610edc57600080fd5b50610efb6004803603810190808035906020019092919050505061335b565b60405180806020018060200180602001806020018060200186810386528b818151815260200191508051906020019060200280838360005b83811015610f4e578082015181840152602081019050610f33565b5050505090500186810385528a818151815260200191508051906020019060200280838360005b83811015610f90578082015181840152602081019050610f75565b50505050905001868103845289818151815260200191508051906020019060200280838360005b83811015610fd2578082015181840152602081019050610fb7565b50505050905001868103835288818151815260200191508051906020019060200280838360005b83811015611014578082015181840152602081019050610ff9565b50505050905001868103825287818151815260200191508051906020019060200280838360005b8381101561105657808201518184015260208101905061103b565b505050509050019a505050505050505050505060405180910390f35b34801561107e57600080fd5b506111196004803603810190808035906020019082018035906020019080806020026020016040519081016040528093929190818152602001838360200280828437820191505050505050919291929080359060200190820180359060200190808060200260200160405190810160405280939291908181526020018383602002808284378201915050505050509192919290505050613719565b6040518080602001828103825283818151815260200191508051906020019060200280838360005b8381101561115c578082015181840152602081019050611141565b505050509050019250505060405180910390f35b34801561117c57600080fd5b50611185613735565b604051808573ffffffffffffffffffffffffffffffffffffffff1673ffffffffffffffffffffffffffffffffffffffff16815260200184815260200183815260200182815260200194505050505060405180910390f35b3480156111e857600080fd5b506112116004803603810190808035906020019092919080359060200190929190505050613842565b005b34801561121f57600080fd5b50611254600480360381019080803573ffffffffffffffffffffffffffffffffffffffff169060200190929190505050613d5f565b005b60008060606000808511801561126c5750600086115b15156112e0576040517f08c379a000000000000000000000000000000000000000000000000000000000815260040180806020018281038252601d8152602001807f56616c756573206d7573742062652067726561746572207468616e203000000081525060200191505060405180910390fd5b848602600260009054906101000a900473ffffffffffffffffffffffffffffffffffffffff1673ffffffffffffffffffffffffffffffffffffffff166370a08231336040518263ffffffff167c0100000000000000000000000000000000000000000000000000000000028152600401808273ffffffffffffffffffffffffffffffffffffffff1673ffffffffffffffffffffffffffffffffffffffff168152602001915050602060405180830381600087803b1580156113a057600080fd5b505af11580156113b4573d6000803e3d6000fd5b505050506040513d60208110156113ca57600080fd5b810190808051906020019092919050505010151515611451576040517f08c379a000000000000000000000000000000000000000000000000000000000815260040180806020018281038252601b8152602001807f496e73756666696369656e742041554420616c6c6f636174696f6e000000000081525060200191505060405180910390fd5b600560c06040519081016040528060018081111561146b57fe5b81526020013373ffffffffffffffffffffffffffffffffffffffff16815260200188815260200187815260200142815260200160008152509080600181540180825580915050906001820390600052602060002090600502016000909192909190915060008201518160000160006101000a81548160ff021916908360018111156114f257fe5b021790555060208201518160000160016101000a81548173ffffffffffffffffffffffffffffffffffffffff021916908373ffffffffffffffffffffffffffffffffffffffff16021790555060408201518160010155606082015181600201556080820151816003015560a08201518160040155505050600260009054906101000a900473ffffffffffffffffffffffffffffffffffffffff1673ffffffffffffffffffffffffffffffffffffffff1663067b3bac338789026040518363ffffffff167c0100000000000000000000000000000000000000000000000000000000028152600401808373ffffffffffffffffffffffffffffffffffffffff1673ffffffffffffffffffffffffffffffffffffffff16815260200182815260200192505050602060405180830381600087803b15801561163057600080fd5b505af1158015611644573d6000803e3d6000fd5b505050506040513d602081101561165a57600080fd5b8101908080519060200190929190505050507f9b0548ddacd7b2f31852ad0ce5af1d780efea21568275e609c14741246bfaeea33604051808273ffffffffffffffffffffffffffffffffffffffff1673ffffffffffffffffffffffffffffffffffffffff16815260200191505060405180910390a16000935060006004805490501115611d0357600092506116ed613e0d565b91505b84841080156116ff5750815183105b15611d0257818381518110151561171257fe5b906020019060200201519050600060048281548110151561172f57fe5b90600052602060002090600502016004015414801561176e57508560048281548110151561175957fe5b90600052602060002090600502016001015411155b801561179b575083850360048281548110151561178757fe5b906000526020600020906005020160020154145b15611cf557600660a0604051908101604052803373ffffffffffffffffffffffffffffffffffffffff1681526020016004848154811015156117d957fe5b906000526020600020906005020160000160019054906101000a900473ffffffffffffffffffffffffffffffffffffffff1673ffffffffffffffffffffffffffffffffffffffff16815260200160048481548110151561183557fe5b906000526020600020906005020160010154815260200160048481548110151561185b57fe5b9060005260206000209060050201600201548152602001428152509080600181540180825580915050906001820390600052602060002090600502016000909192909190915060008201518160000160006101000a81548173ffffffffffffffffffffffffffffffffffffffff021916908373ffffffffffffffffffffffffffffffffffffffff16021790555060208201518160010160006101000a81548173ffffffffffffffffffffffffffffffffffffffff021916908373ffffffffffffffffffffffffffffffffffffffff1602179055506040820151816002015560608201518160030155608082015181600401555050504260048281548110151561196057fe5b90600052602060002090600502016004018190555060048181548110151561198457fe5b90600052602060002090600502016002015484019350600260009054906101000a900473ffffffffffffffffffffffffffffffffffffffff1673ffffffffffffffffffffffffffffffffffffffff1663d5bd9d7e6004838154811015156119e757fe5b906000526020600020906005020160000160019054906101000a900473ffffffffffffffffffffffffffffffffffffffff1688600485815481101515611a2957fe5b906000526020600020906005020160020154026040518363ffffffff167c0100000000000000000000000000000000000000000000000000000000028152600401808373ffffffffffffffffffffffffffffffffffffffff1673ffffffffffffffffffffffffffffffffffffffff16815260200182815260200192505050602060405180830381600087803b158015611ac157600080fd5b505af1158015611ad5573d6000803e3d6000fd5b505050506040513d6020811015611aeb57600080fd5b810190808051906020019092919050505050600160009054906101000a900473ffffffffffffffffffffffffffffffffffffffff1673ffffffffffffffffffffffffffffffffffffffff1663d5bd9d7e33600484815481101515611b4b57fe5b9060005260206000209060050201600201546040518363ffffffff167c0100000000000000000000000000000000000000000000000000000000028152600401808373ffffffffffffffffffffffffffffffffffffffff1673ffffffffffffffffffffffffffffffffffffffff16815260200182815260200192505050602060405180830381600087803b158015611be257600080fd5b505af1158015611bf6573d6000803e3d6000fd5b505050506040513d6020811015611c0c57600080fd5b810190808051906020019092919050505050600481815481101515611c2d57fe5b906000526020600020906005020160000160019054906101000a900473ffffffffffffffffffffffffffffffffffffffff1673ffffffffffffffffffffffffffffffffffffffff167f77c1df43cb7be54edd24d14189148a7ab0e489aa034e7887a49aabeea2e51f18600483815481101515611ca557fe5b906000526020600020906005020160010154600484815481101515611cc657fe5b906000526020600020906005020160020154604051808381526020018281526020019250505060405180910390a25b82806001019350506116f0565b5b505050505050565b6000806000806000925060009150600090505b600680549050811015611dcb5785600682815481101515611d3b57fe5b90600052602060002090600502016004015410158015611d7b575084600682815481101515611d6657fe5b90600052602060002090600502016004015411155b15611dbe57611db3600682815481101515611d9257fe5b90600052602060002090600502016002015484613f5490919063ffffffff16565b925081806001019250505b8080600101915050611d1e565b6000821415611ddd5760009350611df3565b611df08284613f7290919063ffffffff16565b93505b50505092915050565b6060611e0f838360006001875103613f8d565b81905092915050565b600681815481101515611e2757fe5b90600052602060002090600502016000915090508060000160009054906101000a900473ffffffffffffffffffffffffffffffffffffffff16908060010160009054906101000a900473ffffffffffffffffffffffffffffffffffffffff16908060020154908060030154908060040154905085565b600581815481101515611eac57fe5b90600052602060002090600502016000915090508060000160009054906101000a900460ff16908060000160019054906101000a900473ffffffffffffffffffffffffffffffffffffffff16908060010154908060020154908060030154908060040154905086565b600260009054906101000a900473ffffffffffffffffffffffffffffffffffffffff1681565b600360009054906101000a900473ffffffffffffffffffffffffffffffffffffffff1681565b6000806000809150600090505b6006805490508110156120135784600682815481101515611f8b57fe5b90600052602060002090600502016004015410158015611fcb575083600682815481101515611fb657fe5b90600052602060002090600502016004015411155b1561200657612003600682815481101515611fe257fe5b90600052602060002090600502016002015483613f5490919063ffffffff16565b91505b8080600101915050611f6e565b819250505092915050565b6120266126fd565b15156120c0576040517f08c379a00000000000000000000000000000000000000000000000000000000081526004018080602001828103825260268152602001807f4f6e6c7920746865206f776e65722063616e20706572666f726d20746869732081526020017f616374696f6e000000000000000000000000000000000000000000000000000081525060400191505060405180910390fd5b6000809054906101000a900473ffffffffffffffffffffffffffffffffffffffff1673ffffffffffffffffffffffffffffffffffffffff167ff8df31144d9c2f0f6b59d69b8b98abd5459d07f2742c4df920b25aae33c6482060405160405180910390a260008060006101000a81548173ffffffffffffffffffffffffffffffffffffffff021916908373ffffffffffffffffffffffffffffffffffffffff160217905550565b61216f6126fd565b1515612209576040517f08c379a00000000000000000000000000000000000000000000000000000000081526004018080602001828103825260268152602001807f4f6e6c7920746865206f776e65722063616e20706572666f726d20746869732081526020017f616374696f6e000000000000000000000000000000000000000000000000000081525060400191505060405180910390fd5b600660a0604051908101604052808773ffffffffffffffffffffffffffffffffffffffff1681526020018673ffffffffffffffffffffffffffffffffffffffff168152602001858152602001848152602001838152509080600181540180825580915050906001820390600052602060002090600502016000909192909190915060008201518160000160006101000a81548173ffffffffffffffffffffffffffffffffffffffff021916908373ffffffffffffffffffffffffffffffffffffffff16021790555060208201518160010160006101000a81548173ffffffffffffffffffffffffffffffffffffffff021916908373ffffffffffffffffffffffffffffffffffffffff1602179055506040820151816002015560608201518160030155608082015181600401555050505050505050565b6060806060806060600060608060608060608060008d60058054905010612367578d61236e565b6005805490505b9750600a88111561237e57600a97505b612386614158565b9650876040519080825280602002602001820160405280156123b75781602001602082028038833980820191505090505b509550876040519080825280602002602001820160405280156123e95781602001602082028038833980820191505090505b5094508760405190808252806020026020018201604052801561241b5781602001602082028038833980820191505090505b5093508760405190808252806020026020018201604052801561244d5781602001602082028038833980820191505090505b5092508760405190808252806020026020018201604052801561247f5781602001602082028038833980820191505090505b509150600090505b86518110156126b457600587828151811015156124a057fe5b906020019060200201518154811015156124b657fe5b906000526020600020906005020160000160009054906101000a900460ff1686828151811015156124e357fe5b9060200190602002019060018111156124f857fe5b9081600181111561250557fe5b815250506005878281518110151561251957fe5b9060200190602002015181548110151561252f57fe5b906000526020600020906005020160000160019054906101000a900473ffffffffffffffffffffffffffffffffffffffff16858281518110151561256f57fe5b9060200190602002019073ffffffffffffffffffffffffffffffffffffffff16908173ffffffffffffffffffffffffffffffffffffffff1681525050600587828151811015156125bb57fe5b906020019060200201518154811015156125d157fe5b90600052602060002090600502016001015484828151811015156125f157fe5b90602001906020020181815250506005878281518110151561260f57fe5b9060200190602002015181548110151561262557fe5b906000526020600020906005020160020154838281518110151561264557fe5b90602001906020020181815250506005878281518110151561266357fe5b9060200190602002015181548110151561267957fe5b906000526020600020906005020160030154828281518110151561269957fe5b90602001906020020181815250508080600101915050612487565b85858585859c509c509c509c509c50505050505050505091939590929450565b60008060009054906101000a900473ffffffffffffffffffffffffffffffffffffffff16905090565b60008060009054906101000a900473ffffffffffffffffffffffffffffffffffffffff1673ffffffffffffffffffffffffffffffffffffffff163373ffffffffffffffffffffffffffffffffffffffff1614905090565b60078054600181600116156101000203166002900480601f0160208091040260200160405190810160405280929190818152602001828054600181600116156101000203166002900480156127ea5780601f106127bf576101008083540402835291602001916127ea565b820191906000526020600020905b8154815290600101906020018083116127cd57829003601f168201915b505050505081565b6060612804826000600185510361429f565b819050919050565b60048181548110151561281b57fe5b90600052602060002090600502016000915090508060000160009054906101000a900460ff16908060000160019054906101000a900473ffffffffffffffffffffffffffffffffffffffff16908060010154908060020154908060030154908060040154905086565b606061289682600060018551036143ff565b819050919050565b6000806000806060600080600480549050111561298b576128bd613e0d565b91508160008151811015156128ce57fe5b9060200190602002015190506004818154811015156128e957fe5b906000526020600020906005020160000160019054906101000a900473ffffffffffffffffffffffffffffffffffffffff1660048281548110151561292a57fe5b90600052602060002090600502016001015460048381548110151561294b57fe5b90600052602060002090600502016002015460048481548110151561296c57fe5b90600052602060002090600502016003015495509550955095506129a3565b60008060008082925081915080905095509550955095505b505090919293565b6060806060806060600060608060608060608060008d600480549050106129d2578d6129d9565b6004805490505b9750600a8811156129e957600a97505b6129f1613e0d565b965087604051908082528060200260200182016040528015612a225781602001602082028038833980820191505090505b50955087604051908082528060200260200182016040528015612a545781602001602082028038833980820191505090505b50945087604051908082528060200260200182016040528015612a865781602001602082028038833980820191505090505b50935087604051908082528060200260200182016040528015612ab85781602001602082028038833980820191505090505b50925087604051908082528060200260200182016040528015612aea5781602001602082028038833980820191505090505b509150600090505b8651811015612d1f5760048782815181101515612b0b57fe5b90602001906020020151815481101515612b2157fe5b906000526020600020906005020160000160009054906101000a900460ff168682815181101515612b4e57fe5b906020019060200201906001811115612b6357fe5b90816001811115612b7057fe5b8152505060048782815181101515612b8457fe5b90602001906020020151815481101515612b9a57fe5b906000526020600020906005020160000160019054906101000a900473ffffffffffffffffffffffffffffffffffffffff168582815181101515612bda57fe5b9060200190602002019073ffffffffffffffffffffffffffffffffffffffff16908173ffffffffffffffffffffffffffffffffffffffff168152505060048782815181101515612c2657fe5b90602001906020020151815481101515612c3c57fe5b9060005260206000209060050201600101548482815181101515612c5c57fe5b906020019060200201818152505060048782815181101515612c7a57fe5b90602001906020020151815481101515612c9057fe5b9060005260206000209060050201600201548382815181101515612cb057fe5b906020019060200201818152505060048782815181101515612cce57fe5b90602001906020020151815481101515612ce457fe5b9060005260206000209060050201600301548282815181101515612d0457fe5b90602001906020020181815250508080600101915050612af2565b85858585859c509c509c509c509c50505050505050505091939590929450565b60608060608060606000606080606080606060008060058054905060048054905001975087604051908082528060200260200182016040528015612d925781602001602082028038833980820191505090505b50965087604051908082528060200260200182016040528015612dc45781602001602082028038833980820191505090505b50955087604051908082528060200260200182016040528015612df65781602001602082028038833980820191505090505b50945087604051908082528060200260200182016040528015612e285781602001602082028038833980820191505090505b50935087604051908082528060200260200182016040528015612e5a5781602001602082028038833980820191505090505b509250600091505b60048054905082101561304a576000600483815481101515612e8057fe5b906000526020600020906005020160040154141561303d57600482815481101515612ea757fe5b906000526020600020906005020160000160009054906101000a900460ff168783815181101515612ed457fe5b906020019060200201906001811115612ee957fe5b90816001811115612ef657fe5b81525050600482815481101515612f0957fe5b906000526020600020906005020160000160019054906101000a900473ffffffffffffffffffffffffffffffffffffffff168683815181101515612f4957fe5b9060200190602002019073ffffffffffffffffffffffffffffffffffffffff16908173ffffffffffffffffffffffffffffffffffffffff1681525050600482815481101515612f9457fe5b9060005260206000209060050201600101548583815181101515612fb457fe5b9060200190602002018181525050600482815481101515612fd157fe5b9060005260206000209060050201600201548483815181101515612ff157fe5b906020019060200201818152505060048281548110151561300e57fe5b906000526020600020906005020160030154838381518110151561302e57fe5b90602001906020020181815250505b8180600101925050612e62565b600090505b60058054905081101561325a57600060058281548110151561306d57fe5b906000526020600020906005020160040154141561324d5760058181548110151561309457fe5b906000526020600020906005020160000160009054906101000a900460ff168782600480549050018151811015156130c857fe5b9060200190602002019060018111156130dd57fe5b908160018111156130ea57fe5b815250506005818154811015156130fd57fe5b906000526020600020906005020160000160019054906101000a900473ffffffffffffffffffffffffffffffffffffffff1686826004805490500181518110151561314457fe5b9060200190602002019073ffffffffffffffffffffffffffffffffffffffff16908173ffffffffffffffffffffffffffffffffffffffff168152505060058181548110151561318f57fe5b9060005260206000209060050201600101548582600480549050018151811015156131b657fe5b90602001906020020181815250506005818154811015156131d357fe5b9060005260206000209060050201600201548482600480549050018151811015156131fa57fe5b906020019060200201818152505060058181548110151561321757fe5b90600052602060002090600502016003015483826004805490500181518110151561323e57fe5b90602001906020020181815250505b808060010191505061304f565b86868686869c509c509c509c509c5050505050505050509091929394565b6000806000809150600090505b60068054905081101561332a57846006828154811015156132a257fe5b906000526020600020906005020160040154101580156132e25750836006828154811015156132cd57fe5b90600052602060002090600502016004015411155b1561331d5761331a6006828154811015156132f957fe5b90600052602060002090600502016003015483613f5490919063ffffffff16565b91505b8080600101915050613285565b819250505092915050565b600160009054906101000a900473ffffffffffffffffffffffffffffffffffffffff1681565b6060806060806060600060608060608060608060008d60068054905010613382578d613389565b6006805490505b97506103e888111561339b576103e897505b6133a361455f565b9650876040519080825280602002602001820160405280156133d45781602001602082028038833980820191505090505b509550876040519080825280602002602001820160405280156134065781602001602082028038833980820191505090505b509450876040519080825280602002602001820160405280156134385781602001602082028038833980820191505090505b5093508760405190808252806020026020018201604052801561346a5781602001602082028038833980820191505090505b5092508760405190808252806020026020018201604052801561349c5781602001602082028038833980820191505090505b509150600090505b878110156136f957600687828151811015156134bc57fe5b906020019060200201518154811015156134d257fe5b906000526020600020906005020160000160009054906101000a900473ffffffffffffffffffffffffffffffffffffffff16868281518110151561351257fe5b9060200190602002019073ffffffffffffffffffffffffffffffffffffffff16908173ffffffffffffffffffffffffffffffffffffffff16815250506006878281518110151561355e57fe5b9060200190602002015181548110151561357457fe5b906000526020600020906005020160010160009054906101000a900473ffffffffffffffffffffffffffffffffffffffff1685828151811015156135b457fe5b9060200190602002019073ffffffffffffffffffffffffffffffffffffffff16908173ffffffffffffffffffffffffffffffffffffffff16815250506006878281518110151561360057fe5b9060200190602002015181548110151561361657fe5b906000526020600020906005020160020154848281518110151561363657fe5b90602001906020020181815250506006878281518110151561365457fe5b9060200190602002015181548110151561366a57fe5b906000526020600020906005020160030154838281518110151561368a57fe5b9060200190602002018181525050600687828151811015156136a857fe5b906020019060200201518154811015156136be57fe5b90600052602060002090600502016004015482828151811015156136de57fe5b906020019060200201818152505080806001019150506134a4565b85858585859c509c509c509c509c50505050505050505091939590929450565b606061372c83836000600187510361467c565b81905092915050565b6000806000806060600080600580549050111561382257613754614158565b915081600081518110151561376557fe5b90602001906020020151905060058181548110151561378057fe5b906000526020600020906005020160000160019054906101000a900473ffffffffffffffffffffffffffffffffffffffff166005828154811015156137c157fe5b9060005260206000209060050201600101546005838154811015156137e257fe5b90600052602060002090600502016002015460058481548110151561380357fe5b906000526020600020906005020160030154955095509550955061383a565b60008060008082925081915080905095509550955095505b505090919293565b6000811180156138525750600082115b15156138c6576040517f08c379a000000000000000000000000000000000000000000000000000000000815260040180806020018281038252601d8152602001807f56616c756573206d7573742062652067726561746572207468616e203000000081525060200191505060405180910390fd5b80600160009054906101000a900473ffffffffffffffffffffffffffffffffffffffff1673ffffffffffffffffffffffffffffffffffffffff166370a08231336040518263ffffffff167c0100000000000000000000000000000000000000000000000000000000028152600401808273ffffffffffffffffffffffffffffffffffffffff1673ffffffffffffffffffffffffffffffffffffffff168152602001915050602060405180830381600087803b15801561398457600080fd5b505af1158015613998573d6000803e3d6000fd5b505050506040513d60208110156139ae57600080fd5b810190808051906020019092919050505010151515613a35576040517f08c379a000000000000000000000000000000000000000000000000000000000815260040180806020018281038252601d8152602001807f496e73756666696369656e7420776174657220616c6c6f636174696f6e00000081525060200191505060405180910390fd5b600460c06040519081016040528060006001811115613a5057fe5b81526020013373ffffffffffffffffffffffffffffffffffffffff16815260200184815260200183815260200142815260200160008152509080600181540180825580915050906001820390600052602060002090600502016000909192909190915060008201518160000160006101000a81548160ff02191690836001811115613ad757fe5b021790555060208201518160000160016101000a81548173ffffffffffffffffffffffffffffffffffffffff021916908373ffffffffffffffffffffffffffffffffffffffff16021790555060408201518160010155606082015181600201556080820151816003015560a08201518160040155505050600360009054906101000a900473ffffffffffffffffffffffffffffffffffffffff1673ffffffffffffffffffffffffffffffffffffffff166396455e13826040518263ffffffff167c010000000000000000000000000000000000000000000000000000000002815260040180828152602001915050600060405180830381600087803b158015613bdf57600080fd5b505af1158015613bf3573d6000803e3d6000fd5b50505050600160009054906101000a900473ffffffffffffffffffffffffffffffffffffffff1673ffffffffffffffffffffffffffffffffffffffff1663067b3bac33836040518363ffffffff167c0100000000000000000000000000000000000000000000000000000000028152600401808373ffffffffffffffffffffffffffffffffffffffff1673ffffffffffffffffffffffffffffffffffffffff16815260200182815260200192505050602060405180830381600087803b158015613cbc57600080fd5b505af1158015613cd0573d6000803e3d6000fd5b505050506040513d6020811015613ce657600080fd5b8101908080519060200190929190505050507f9b0548ddacd7b2f31852ad0ce5af1d780efea21568275e609c14741246bfaeea33604051808273ffffffffffffffffffffffffffffffffffffffff1673ffffffffffffffffffffffffffffffffffffffff16815260200191505060405180910390a15050565b613d676126fd565b1515613e01576040517f08c379a00000000000000000000000000000000000000000000000000000000081526004018080602001828103825260268152602001807f4f6e6c7920746865206f776e65722063616e20706572666f726d20746869732081526020017f616374696f6e000000000000000000000000000000000000000000000000000081525060400191505060405180910390fd5b613e0a81614847565b50565b606080606060006060600480549050604051908082528060200260200182016040528015613e4a5781602001602082028038833980820191505090505b509350600480549050604051908082528060200260200182016040528015613e815781602001602082028038833980820191505090505b50925060006004805490501415613e9a57829450613f4d565b600091505b600480549050821015613f3d576000600483815481101515613ebd57fe5b9060005260206000209060050201600401541415613f3057600482815481101515613ee457fe5b9060005260206000209060050201600101548483815181101515613f0457fe5b9060200190602002018181525050818383815181101515613f2157fe5b90602001906020020181815250505b8180600101925050613e9f565b613f478484611dfc565b90508094505b5050505090565b6000808284019050838110151515613f6857fe5b8091505092915050565b6000808284811515613f8057fe5b0490508091505092915050565b600080600084925083915081831415613fa55761414f565b866002868603811515613fb457fe5b058601815181101515613fc357fe5b9060200190602002015190505b8183131515614124575b808784815181101515613fe957fe5b906020019060200201511015614006578280600101935050613fda565b5b868281518110151561401557fe5b9060200190602002015181101561403457818060019003925050614007565b818313151561411f57868281518110151561404b57fe5b90602001906020020151878481518110151561406357fe5b90602001906020020151888581518110151561407b57fe5b906020019060200201898581518110151561409257fe5b9060200190602002018281525082815250505085828151811015156140b357fe5b9060200190602002015186848151811015156140cb57fe5b9060200190602002015187858151811015156140e357fe5b90602001906020020188858151811015156140fa57fe5b9060200190602002018281525082815250505082806001019350508180600190039250505b613fd0565b818512156141395761413887878785613f8d565b5b8383121561414e5761414d87878587613f8d565b5b5b50505050505050565b6060806060600060606005805490506040519080825280602002602001820160405280156141955781602001602082028038833980820191505090505b5093506005805490506040519080825280602002602001820160405280156141cc5781602001602082028038833980820191505090505b509250600060058054905014156141e557829450614298565b600091505b60058054905082101561428857600060058381548110151561420857fe5b906000526020600020906005020160040154141561427b5760058281548110151561422f57fe5b906000526020600020906005020160010154848381518110151561424f57fe5b906020019060200201818152505081838381518110151561426c57fe5b90602001906020020181815250505b81806001019250506141ea565b6142928484613719565b90508094505b5050505090565b6000806000849250839150818314156142b7576143f7565b8560028686038115156142c657fe5b0586018151811015156142d557fe5b9060200190602002015190505b81831315156143ce575b8086848151811015156142fb57fe5b9060200190602002015110156143185782806001019350506142ec565b5b858281518110151561432757fe5b9060200190602002015181101561434657818060019003925050614319565b81831315156143c957858281518110151561435d57fe5b90602001906020020151868481518110151561437557fe5b90602001906020020151878581518110151561438d57fe5b90602001906020020188858151811015156143a457fe5b9060200190602002018281525082815250505082806001019350508180600190039250505b6142e2565b818512156143e2576143e186868461429f565b5b838312156143f6576143f586848661429f565b5b5b505050505050565b60008060008492508391508183141561441757614557565b85600286860381151561442657fe5b05860181518110151561443557fe5b9060200190602002015190505b818313151561452e575b80868481518110151561445b57fe5b90602001906020020151111561447857828060010193505061444c565b5b858281518110151561448757fe5b906020019060200201518111156144a657818060019003925050614479565b81831315156145295785828151811015156144bd57fe5b9060200190602002015186848151811015156144d557fe5b9060200190602002015187858151811015156144ed57fe5b906020019060200201888581518110151561450457fe5b9060200190602002018281525082815250505082806001019350508180600190039250505b614442565b81851215614542576145418686846143ff565b5b83831215614556576145558684866143ff565b5b5b505050505050565b60608060606000606060068054905060405190808252806020026020018201604052801561459c5781602001602082028038833980820191505090505b5093506006805490506040519080825280602002602001820160405280156145d35781602001602082028038833980820191505090505b509250600060068054905014156145ec57829450614675565b600091505b6006805490508210156146655760068281548110151561460d57fe5b906000526020600020906005020160040154848381518110151561462d57fe5b906020019060200201818152505081838381518110151561464a57fe5b906020019060200201818152505081806001019250506145f1565b61466f8484613719565b90508094505b5050505090565b6000806000849250839150818314156146945761483e565b8660028686038115156146a357fe5b0586018151811015156146b257fe5b9060200190602002015190505b8183131515614813575b8087848151811015156146d857fe5b9060200190602002015111156146f55782806001019350506146c9565b5b868281518110151561470457fe5b90602001906020020151811115614723578180600190039250506146f6565b818313151561480e57868281518110151561473a57fe5b90602001906020020151878481518110151561475257fe5b90602001906020020151888581518110151561476a57fe5b906020019060200201898581518110151561478157fe5b9060200190602002018281525082815250505085828151811015156147a257fe5b9060200190602002015186848151811015156147ba57fe5b9060200190602002015187858151811015156147d257fe5b90602001906020020188858151811015156147e957fe5b9060200190602002018281525082815250505082806001019350508180600190039250505b6146bf565b81851215614828576148278787878561467c565b5b8383121561483d5761483c8787858761467c565b5b5b50505050505050565b600073ffffffffffffffffffffffffffffffffffffffff168173ffffffffffffffffffffffffffffffffffffffff1614151515614912576040517f08c379a00000000000000000000000000000000000000000000000000000000081526004018080602001828103825260278152602001807f596f752063616e6e6f74207472616e7366657220746f20746865207a65726f2081526020017f616464726573730000000000000000000000000000000000000000000000000081525060400191505060405180910390fd5b8073ffffffffffffffffffffffffffffffffffffffff166000809054906101000a900473ffffffffffffffffffffffffffffffffffffffff1673ffffffffffffffffffffffffffffffffffffffff167f8be0079c531659141344cd1fd0a4f28419497f9722a3daafe3b4186f6b6457e060405160405180910390a3806000806101000a81548173ffffffffffffffffffffffffffffffffffffffff021916908373ffffffffffffffffffffffffffffffffffffffff160217905550505600a165627a7a7230582094c8ecba4e582e1e21824228d1d8c207999e928f251bfb97b79553383e4d01160029",
  "source": "pragma solidity ^0.4.24;\n\nimport \"./Ownable.sol\";\nimport \"./Water.sol\";\nimport \"./Stats.sol\";\nimport \"./AUD.sol\";\nimport \"./IERC20.sol\";\nimport \"./QuickSort.sol\";\nimport \"./SafeMath.sol\";\n\ncontract OrderBook is QuickSort, Ownable {\n    using SafeMath for uint;\n\n    IERC20 public _water;\n    IERC20 public _aud;\n    Stats public _stats;\n\n    enum OrderType { Ask, Offer }\n\n    struct Order {\n        OrderType orderType;\n        address owner;\n        uint256 price;\n        uint256 quantity;\n        uint256 timeStamp;\n        uint256 matchedTimeStamp;\n    }\n\n    struct Trade {\n        address buyer;\n        address seller;\n        uint256 averagePrice;\n        uint256 quantity;\n        uint256 timeStamp;\n    }\n\n    Order[] public _asks;\n    Order[] public _offers;\n\n    Trade[] public _history;\n    string public _tradingZone;\n\n\n    function averageValueTradedInPeriod(uint256 from, uint256 to) public view returns(uint256) {\n        uint256 total = 0;\n        uint256 numberOfMatches = 0;\n\n        for (uint i = 0; i < _history.length; i++) {\n            if (_history[i].timeStamp >= from && _history[i].timeStamp <= to) {\n                total = total.add(_history[i].averagePrice);\n                numberOfMatches++;\n            }\n        }\n\n        if (numberOfMatches == 0) {\n            return 0;\n        }\n\n        return total.div(numberOfMatches);\n    }\n\n    function totalValueTradedInPeriod(uint256 from, uint256 to) public view returns(uint256) {\n        uint256 total = 0;\n\n        for (uint i = 0; i < _history.length; i++) {\n            if (_history[i].timeStamp >= from && _history[i].timeStamp <= to) {\n                total = total.add(_history[i].averagePrice);\n            }\n        }\n\n        return total;\n    }\n\n    function totalVolumeTradedInPeriod(uint256 from, uint256 to) public view returns(uint256) {\n        uint256 total = 0;\n\n        for (uint i = 0; i < _history.length; i++) {\n            if (_history[i].timeStamp >= from && _history[i].timeStamp <= to) {\n                total = total.add(_history[i].quantity);\n            }\n        }\n\n        return total;\n    }\n\n    function manualHistoryAdd(\n        address buyer,\n        address seller,\n        uint256 averagePrice,\n        uint256 quantity,\n        uint256 timeStamp) public onlyOwner {\n        _history.push(Trade(buyer, seller, averagePrice, quantity, timeStamp));\n    }\n\n    function getHistory(uint256 numberOfTrades) public view returns(address[], address[], uint256[], uint256[], uint256[]) {\n        uint256 max = _history.length < numberOfTrades ? _history.length : numberOfTrades;\n\n        if (max > 1000) {\n            max = 1000;\n        }\n\n        uint256[] memory sortedIndexes = getTimeHistory();\n\n        address[] memory buyers = new address[](max);\n        address[] memory sellers = new address[](max);\n        uint256[] memory averagePrices = new uint256[](max);\n        uint256[] memory quantities = new uint256[](max);\n        uint256[] memory timeStamps = new uint256[](max);\n\n        for(uint256 i = 0; i < max; i++) {\n            buyers[i] = _history[sortedIndexes[i]].buyer;\n            sellers[i] = _history[sortedIndexes[i]].seller;\n            averagePrices[i] = _history[sortedIndexes[i]].averagePrice;\n            quantities[i] = _history[sortedIndexes[i]].quantity;\n            timeStamps[i] = _history[sortedIndexes[i]].timeStamp;\n        }\n\n        return (buyers, sellers, averagePrices, quantities, timeStamps);\n    }\n\n    constructor (address statsContract, address waterContract, address audContract, string tradingZone) public {\n        _aud = AUD(audContract);\n        _stats = Stats(statsContract);\n        _water = Water(waterContract);\n        _tradingZone = tradingZone;\n    }\n\n    function addSellLimitOrder(uint256 price, uint256 quantity) public {\n        require(quantity > 0 && price > 0, \"Values must be greater than 0\");\n        require(_water.balanceOf(msg.sender) >= quantity, \"Insufficient water allocation\");\n\n        _asks.push(Order(OrderType.Ask, msg.sender, price, quantity, now, 0));\n        _stats.updateVolumeAvailable(quantity);\n        _water.orderBookDebit(msg.sender, quantity);\n\n        emit OrderAdded(msg.sender);\n    }\n\n    function addBuyLimitOrder(uint256 price, uint256 quantity) public {\n        require(quantity > 0 && price > 0, \"Values must be greater than 0\");\n        require(_aud.balanceOf(msg.sender) >= price * quantity, \"Insufficient AUD allocation\");\n\n        //Push to array first\n        _offers.push(Order(OrderType.Offer, msg.sender, price, quantity, now, 0));\n        _aud.orderBookDebit(msg.sender, price * quantity);\n\n        emit OrderAdded(msg.sender);\n\n        uint256 matchedQuantity = 0;\n\n        if (_asks.length > 0) {\n\n            uint256 i = 0;\n            uint256[] memory sortedIndexes = getPriceTimeAskOrders();\n\n            while (matchedQuantity < quantity && i < sortedIndexes.length) {\n\n                uint256 j = sortedIndexes[i];\n\n                if ( _asks[j].matchedTimeStamp == 0 && _asks[j].price <= price && _asks[j].quantity == (quantity - matchedQuantity)) {\n                    _history.push(Trade(msg.sender, _asks[j].owner, _asks[j].price, _asks[j].quantity, now));\n                    _asks[j].matchedTimeStamp = now;\n\n                    matchedQuantity += _asks[j].quantity;\n\n                    //Credit the seller with AUD\n                    _aud.orderBookCredit(_asks[j].owner, _asks[j].quantity * price);\n\n                    //Credit the buyer with water\n                    _water.orderBookCredit(msg.sender, _asks[j].quantity);\n\n                    emit Matched(_asks[j].owner, _asks[j].price, _asks[j].quantity);\n                }\n\n                i++;\n            }\n        }\n    }\n\n    function getOrderBook() public view returns (\n        OrderType[],\n        address[],\n        uint256[],\n        uint256[],\n        uint256[]\n    ) {\n        uint256 totalLength = _asks.length + _offers.length;\n\n        OrderType[] memory orderTypes = new OrderType[](totalLength);\n        address[] memory owners = new address[](totalLength);\n        uint256[] memory prices = new uint256[](totalLength);\n        uint256[] memory quantities = new uint256[](totalLength);\n        uint256[] memory timeStamps = new uint256[](totalLength);\n\n        for(uint256 i = 0; i < _asks.length; i++) {\n            if (_asks[i].matchedTimeStamp == 0) {\n                orderTypes[i] = _asks[i].orderType;\n                owners[i] = _asks[i].owner;\n                prices[i] = _asks[i].price;\n                quantities[i] = _asks[i].quantity;\n                timeStamps[i] = _asks[i].timeStamp;\n            }\n        }\n\n        for(uint256 j = 0; j < _offers.length; j++) {\n            if (_offers[j].matchedTimeStamp == 0) {\n                orderTypes[_asks.length + j] = _offers[j].orderType;\n                owners[_asks.length + j] = _offers[j].owner;\n                prices[_asks.length + j] = _offers[j].price;\n                quantities[_asks.length + j] = _offers[j].quantity;\n                timeStamps[_asks.length + j] = _offers[j].timeStamp;\n            }\n        }\n\n        return (orderTypes, owners, prices, quantities, timeStamps);\n    }\n\n    function getOrderBookAsks(uint256 numberOfOrders) public view returns (\n        OrderType[],\n        address[],\n        uint256[],\n        uint256[],\n        uint256[]\n    ) {\n\n        uint256 max = _asks.length < numberOfOrders ? _asks.length : numberOfOrders;\n\n        if (max > 10) {\n            max = 10;\n        }\n\n        uint256[] memory sortedIndexes = getPriceTimeAskOrders();\n\n        OrderType[] memory orderTypes = new OrderType[](max);\n        address[] memory owners = new address[](max);\n        uint256[] memory prices = new uint256[](max);\n        uint256[] memory quantities = new uint256[](max);\n        uint256[] memory timeStamps = new uint256[](max);\n\n        for(uint256 i = 0; i < sortedIndexes.length; i++) {\n            orderTypes[i] = _asks[sortedIndexes[i]].orderType;\n            owners[i] = _asks[sortedIndexes[i]].owner;\n            prices[i] = _asks[sortedIndexes[i]].price;\n            quantities[i] = _asks[sortedIndexes[i]].quantity;\n            timeStamps[i] = _asks[sortedIndexes[i]].timeStamp;\n        }\n\n        return (orderTypes, owners, prices, quantities, timeStamps);\n    }\n\n    function getOrderBookOffers(uint256 numberOfOrders) public view returns (\n        OrderType[],\n        address[],\n        uint256[],\n        uint256[],\n        uint256[]\n    ) {\n\n        uint256 max = _offers.length < numberOfOrders ? _offers.length : numberOfOrders;\n\n        if (max > 10) {\n            max = 10;\n        }\n\n        uint256[] memory sortedIndexes = getPriceTimeOfferOrders();\n\n        OrderType[] memory orderTypes = new OrderType[](max);\n        address[] memory owners = new address[](max);\n        uint256[] memory prices = new uint256[](max);\n        uint256[] memory quantities = new uint256[](max);\n        uint256[] memory timeStamps = new uint256[](max);\n\n        for(uint256 i = 0; i < sortedIndexes.length; i++) {\n            orderTypes[i] = _offers[sortedIndexes[i]].orderType;\n            owners[i] = _offers[sortedIndexes[i]].owner;\n            prices[i] = _offers[sortedIndexes[i]].price;\n            quantities[i] = _offers[sortedIndexes[i]].quantity;\n            timeStamps[i] = _offers[sortedIndexes[i]].timeStamp;\n        }\n\n        return (orderTypes, owners, prices, quantities, timeStamps);\n    }\n\n    function lowestAsk() public view returns(address, uint256, uint256, uint256) {\n        if (_asks.length > 0) {\n            uint256[] memory sortedIndexes = getPriceTimeAskOrders();\n\n            uint i = sortedIndexes[0];\n            return (_asks[i].owner, _asks[i].price, _asks[i].quantity, _asks[i].timeStamp);\n        }\n\n        return (address(0), 0, 0, 0);\n\n    }\n\n    function highestBid() public view returns(address, uint256, uint256, uint256) {\n        if (_offers.length > 0) {\n            uint256[] memory sortedIndexes = getPriceTimeOfferOrders();\n\n            uint i = sortedIndexes[0];\n            return (_offers[i].owner, _offers[i].price, _offers[i].quantity, _offers[i].timeStamp);\n        }\n\n        return (address(0), 0, 0, 0);\n    }\n\n    function getTimeHistory() internal view returns(uint256[]) {\n\n        uint256[] memory timeStamps = new uint256[](_history.length);\n        uint256[] memory indexes = new uint256[](_history.length);\n\n        if (_history.length == 0) {\n            return indexes;\n        }\n\n        for (uint i = 0; i < _history.length; i++) {\n            timeStamps[i] = _history[i].timeStamp;\n            indexes[i] = i;\n        }\n\n        uint256[] memory sortedIndexes = reverseSortWithIndex(timeStamps, indexes);\n        return sortedIndexes;\n    }\n\n    function getPriceTimeAskOrders() internal view returns(uint256[]) {\n        uint256[] memory prices = new uint256[](_asks.length);\n        uint256[] memory indexes = new uint256[](_asks.length);\n\n        if (_asks.length == 0) {\n            return indexes;\n        }\n\n        for (uint i = 0; i < _asks.length; i++) {\n            if (_asks[i].matchedTimeStamp == 0) {\n                prices[i] = _asks[i].price;\n                indexes[i] = i;\n            }\n        }\n\n        uint256[] memory sortedIndexes = sortWithIndex(prices, indexes);\n        return sortedIndexes;\n    }\n\n    function getPriceTimeOfferOrders() internal view returns(uint256[]) {\n        uint256[] memory prices = new uint256[](_offers.length);\n        uint256[] memory indexes = new uint256[](_offers.length);\n\n        if (_offers.length == 0) {\n            return indexes;\n        }\n\n        for (uint i = 0; i < _offers.length; i++) {\n            if (_offers[i].matchedTimeStamp == 0) {\n                prices[i] = _offers[i].price;\n                indexes[i] = i;\n            }\n        }\n\n        uint256[] memory sortedIndexes = reverseSortWithIndex(prices, indexes);\n        return sortedIndexes;\n    }\n\n    event OrderAdded(address _stats);\n    event Matched(address indexed owner, uint256 price, uint256 quantity);\n}",
  "sourcePath": "/Users/mattb/Code/waterledger/core/contracts/OrderBook.sol",
  "compiler": {
    "name": "solc",
    "version": "0.4.24+commit.e67f0147.Emscripten.clang"
  },
  "schemaVersion": "3.0.0-beta.0",
  "updatedAt": "2018-11-22T22:45:03.401Z"
}