{
  "contractName": "QuickSort",
  "abi": [
    {
      "constant": true,
      "inputs": [
        {
          "name": "data",
          "type": "uint256[]"
        }
      ],
      "name": "sort",
      "outputs": [
        {
          "name": "",
          "type": "uint256[]"
        }
      ],
      "payable": false,
      "stateMutability": "pure",
      "type": "function"
    },
    {
      "constant": true,
      "inputs": [
        {
          "name": "data",
          "type": "uint256[]"
        }
      ],
      "name": "reverseSort",
      "outputs": [
        {
          "name": "",
          "type": "uint256[]"
        }
      ],
      "payable": false,
      "stateMutability": "pure",
      "type": "function"
    },
    {
      "constant": true,
      "inputs": [
        {
          "name": "data",
          "type": "uint256[]"
        },
        {
          "name": "indices",
          "type": "uint256[]"
        }
      ],
      "name": "sortWithIndex",
      "outputs": [
        {
          "name": "",
          "type": "uint256[]"
        }
      ],
      "payable": false,
      "stateMutability": "pure",
      "type": "function"
    },
    {
      "constant": true,
      "inputs": [
        {
          "name": "data",
          "type": "uint256[]"
        },
        {
          "name": "indices",
          "type": "uint256[]"
        }
      ],
      "name": "reverseSortWithIndex",
      "outputs": [
        {
          "name": "",
          "type": "uint256[]"
        }
      ],
      "payable": false,
      "stateMutability": "pure",
      "type": "function"
    }
  ],
  "bytecode": "0x608060405234801561001057600080fd5b50610ac7806100206000396000f300608060405260043610610062576000357c0100000000000000000000000000000000000000000000000000000000900463ffffffff168063210ec488146100675780639ec8b02614610165578063aa44899714610220578063d01fbaf9146102db575b600080fd5b34801561007357600080fd5b5061010e60048036038101908080359060200190820180359060200190808060200260200160405190810160405280939291908181526020018383602002808284378201915050505050509192919290803590602001908201803590602001908080602002602001604051908101604052809392919081815260200183836020028082843782019150505050505091929192905050506103d9565b6040518080602001828103825283818151815260200191508051906020019060200280838360005b83811015610151578082015181840152602081019050610136565b505050509050019250505060405180910390f35b34801561017157600080fd5b506101c9600480360381019080803590602001908201803590602001908080602002602001604051908101604052809392919081815260200183836020028082843782019150505050505091929192905050506103f5565b6040518080602001828103825283818151815260200191508051906020019060200280838360005b8381101561020c5780820151818401526020810190506101f1565b505050509050019250505060405180910390f35b34801561022c57600080fd5b506102846004803603810190808035906020019082018035906020019080806020026020016040519081016040528093929190818152602001838360200280828437820191505050505050919291929050505061040f565b6040518080602001828103825283818151815260200191508051906020019060200280838360005b838110156102c75780820151818401526020810190506102ac565b505050509050019250505060405180910390f35b3480156102e757600080fd5b506103826004803603810190808035906020019082018035906020019080806020026020016040519081016040528093929190818152602001838360200280828437820191505050505050919291929080359060200190820180359060200190808060200260200160405190810160405280939291908181526020018383602002808284378201915050505050509192919290505050610429565b6040518080602001828103825283818151815260200191508051906020019060200280838360005b838110156103c55780820151818401526020810190506103aa565b505050509050019250505060405180910390f35b60606103ec838360006001875103610445565b81905092915050565b60606104078260006001855103610610565b819050919050565b60606104218260006001855103610770565b819050919050565b606061043c8383600060018751036108d0565b81905092915050565b60008060008492508391508183141561045d57610607565b86600286860381151561046c57fe5b05860181518110151561047b57fe5b9060200190602002015190505b81831315156105dc575b8087848151811015156104a157fe5b9060200190602002015110156104be578280600101935050610492565b5b86828151811015156104cd57fe5b906020019060200201518110156104ec578180600190039250506104bf565b81831315156105d757868281518110151561050357fe5b90602001906020020151878481518110151561051b57fe5b90602001906020020151888581518110151561053357fe5b906020019060200201898581518110151561054a57fe5b90602001906020020182815250828152505050858281518110151561056b57fe5b90602001906020020151868481518110151561058357fe5b90602001906020020151878581518110151561059b57fe5b90602001906020020188858151811015156105b257fe5b9060200190602002018281525082815250505082806001019350508180600190039250505b610488565b818512156105f1576105f087878785610445565b5b838312156106065761060587878587610445565b5b5b50505050505050565b60008060008492508391508183141561062857610768565b85600286860381151561063757fe5b05860181518110151561064657fe5b9060200190602002015190505b818313151561073f575b80868481518110151561066c57fe5b90602001906020020151101561068957828060010193505061065d565b5b858281518110151561069857fe5b906020019060200201518110156106b75781806001900392505061068a565b818313151561073a5785828151811015156106ce57fe5b9060200190602002015186848151811015156106e657fe5b9060200190602002015187858151811015156106fe57fe5b906020019060200201888581518110151561071557fe5b9060200190602002018281525082815250505082806001019350508180600190039250505b610653565b8185121561075357610752868684610610565b5b8383121561076757610766868486610610565b5b5b505050505050565b600080600084925083915081831415610788576108c8565b85600286860381151561079757fe5b0586018151811015156107a657fe5b9060200190602002015190505b818313151561089f575b8086848151811015156107cc57fe5b9060200190602002015111156107e95782806001019350506107bd565b5b85828151811015156107f857fe5b90602001906020020151811115610817578180600190039250506107ea565b818313151561089a57858281518110151561082e57fe5b90602001906020020151868481518110151561084657fe5b90602001906020020151878581518110151561085e57fe5b906020019060200201888581518110151561087557fe5b9060200190602002018281525082815250505082806001019350508180600190039250505b6107b3565b818512156108b3576108b2868684610770565b5b838312156108c7576108c6868486610770565b5b5b505050505050565b6000806000849250839150818314156108e857610a92565b8660028686038115156108f757fe5b05860181518110151561090657fe5b9060200190602002015190505b8183131515610a67575b80878481518110151561092c57fe5b90602001906020020151111561094957828060010193505061091d565b5b868281518110151561095857fe5b906020019060200201518111156109775781806001900392505061094a565b8183131515610a6257868281518110151561098e57fe5b9060200190602002015187848151811015156109a657fe5b9060200190602002015188858151811015156109be57fe5b90602001906020020189858151811015156109d557fe5b9060200190602002018281525082815250505085828151811015156109f657fe5b906020019060200201518684815181101515610a0e57fe5b906020019060200201518785815181101515610a2657fe5b9060200190602002018885815181101515610a3d57fe5b9060200190602002018281525082815250505082806001019350508180600190039250505b610913565b81851215610a7c57610a7b878787856108d0565b5b83831215610a9157610a90878785876108d0565b5b5b505050505050505600a165627a7a723058201da8eda8dc9b4a34deb4fb1221f4cff47a6b0f838a70ddf51e2cdeacf7aba9c30029",
  "source": "pragma solidity ^0.4.24;\n\ncontract QuickSort {\n    \n    function sort(uint[] data) public pure returns(uint[]) {\n        quickSort(data, int(0), int(data.length - 1));\n        return data;\n    }\n\n    function reverseSort(uint[] data) public pure returns(uint[]) {\n        quickSortReverse(data, int(0), int(data.length - 1));\n        return data;\n    }\n\n    //Returns the sorted indexes\n    function sortWithIndex(uint[] data, uint[] indices) public pure returns(uint[]) {\n        quickSortWithIndex(data, indices, int(0), int(data.length - 1));\n        return indices;\n    }\n\n    function reverseSortWithIndex(uint[] data, uint[] indices) public pure returns(uint[]) {\n        quickReverseSortWithIndex(data, indices, int(0), int(data.length - 1));\n        return indices;\n    }\n    \n    function quickSort(uint[] memory arr, int left, int right) internal pure {\n        int i = left;\n        int j = right;\n\n        if(i==j) return;\n\n        uint pivot = arr[uint(left + (right - left) / 2)];\n        while (i <= j) {\n            while (arr[uint(i)] < pivot) { \n                i++;\n            }\n\n            while (pivot < arr[uint(j)]) {\n                j--;\n            }\n            \n            if (i <= j) {\n                (arr[uint(i)], arr[uint(j)]) = (arr[uint(j)], arr[uint(i)]);\n                i++;\n                j--;\n            }\n        }\n\n        if (left < j)\n            quickSort(arr, left, j);\n        if (i < right)\n            quickSort(arr, i, right);\n    }\n\n    function quickSortReverse(uint[] memory arr, int left, int right) internal pure {\n        int i = left;\n        int j = right;\n\n        if(i==j) return;\n\n        uint pivot = arr[uint(left + (right - left) / 2)];\n        while (i <= j) {\n            while (arr[uint(i)] > pivot) { \n                i++;\n            }\n\n            while (pivot > arr[uint(j)]) {\n                j--;\n            }\n\n            if (i <= j) {\n                (arr[uint(i)], arr[uint(j)]) = (arr[uint(j)], arr[uint(i)]);\n                i++;\n                j--;\n            }\n        }\n    \n        if (left < j)\n            quickSortReverse(arr, left, j);\n        if (i < right)\n            quickSortReverse(arr, i, right);\n    }\n\n    function quickSortWithIndex(uint[] memory arr, uint[] memory indices, int left, int right) internal pure {\n        int i = left;\n        int j = right;\n\n        if(i==j) return;\n\n        uint pivot = arr[uint(left + (right - left) / 2)];\n        while (i <= j) {\n            while (arr[uint(i)] < pivot) i++;\n            while (pivot < arr[uint(j)]) j--;\n            if (i <= j) {\n                (arr[uint(i)], arr[uint(j)]) = (arr[uint(j)], arr[uint(i)]);\n                (indices[uint(i)], indices[uint(j)]) = (indices[uint(j)], indices[uint(i)]);\n                i++;\n                j--;\n            }\n        }\n    \n        if (left < j)\n            quickSortWithIndex(arr, indices, left, j);\n        if (i < right)\n            quickSortWithIndex(arr, indices, i, right);\n    }\n\n    function quickReverseSortWithIndex(uint[] memory arr, uint[] memory indices, int left, int right) internal pure {\n        int i = left;\n        int j = right;\n\n        if(i==j) return;\n\n        uint pivot = arr[uint(left + (right - left) / 2)];\n        while (i <= j) {\n            while (arr[uint(i)] > pivot) { \n                i++;\n            }\n\n            while (pivot > arr[uint(j)]) {\n                j--;\n            }\n\n            if (i <= j) {\n                (arr[uint(i)], arr[uint(j)]) = (arr[uint(j)], arr[uint(i)]);\n                (indices[uint(i)], indices[uint(j)]) = (indices[uint(j)], indices[uint(i)]);\n                i++;\n                j--;\n            }\n        }\n    \n        if (left < j)\n            quickReverseSortWithIndex(arr, indices, left, j);\n        if (i < right)\n            quickReverseSortWithIndex(arr, indices, i, right);\n    }\n}",
  "sourcePath": "/Users/mattb/Code/waterledger/core/contracts/QuickSort.sol",
  "compiler": {
    "name": "solc",
    "version": "0.4.25+commit.59dbf8f1.Emscripten.clang"
  },
  "schemaVersion": "3.0.0-beta.1",
  "updatedAt": "2018-11-22T14:03:15.114Z"
}