{
  "contractName": "TradingPeriodRestriction",
  "abi": [
    {
      "constant": false,
      "inputs": [
        {
          "name": "keyHash",
          "type": "bytes32"
        },
        {
          "name": "start",
          "type": "uint256"
        },
        {
          "name": "end",
          "type": "uint256"
        }
      ],
      "name": "addTradingPeriod",
      "outputs": [],
      "payable": false,
      "stateMutability": "nonpayable",
      "type": "function"
    },
    {
      "constant": false,
      "inputs": [
        {
          "name": "keyHash",
          "type": "bytes32"
        },
        {
          "name": "periodIndex",
          "type": "uint256"
        },
        {
          "name": "start",
          "type": "uint256"
        },
        {
          "name": "end",
          "type": "uint256"
        }
      ],
      "name": "changeTradingPeriod",
      "outputs": [],
      "payable": false,
      "stateMutability": "nonpayable",
      "type": "function"
    },
    {
      "constant": true,
      "inputs": [
        {
          "name": "keyHash",
          "type": "bytes32"
        },
        {
          "name": "periodIndex",
          "type": "uint256"
        }
      ],
      "name": "tradingPeriodByKey",
      "outputs": [
        {
          "name": "",
          "type": "uint256"
        },
        {
          "name": "",
          "type": "uint256"
        }
      ],
      "payable": false,
      "stateMutability": "view",
      "type": "function"
    },
    {
      "constant": true,
      "inputs": [
        {
          "name": "keyHash",
          "type": "bytes32"
        }
      ],
      "name": "tradingPeriodCountByKey",
      "outputs": [
        {
          "name": "",
          "type": "uint256"
        }
      ],
      "payable": false,
      "stateMutability": "view",
      "type": "function"
    },
    {
      "constant": true,
      "inputs": [
        {
          "name": "keyHash",
          "type": "bytes32"
        },
        {
          "name": "onDate",
          "type": "uint256"
        }
      ],
      "name": "canTrade",
      "outputs": [
        {
          "name": "",
          "type": "bool"
        }
      ],
      "payable": false,
      "stateMutability": "view",
      "type": "function"
    }
  ],
  "bytecode": "0x6080604052336000806101000a81548173ffffffffffffffffffffffffffffffffffffffff021916908373ffffffffffffffffffffffffffffffffffffffff160217905550610806806100536000396000f30060806040526004361061006d576000357c0100000000000000000000000000000000000000000000000000000000900463ffffffff168063129c6c68146100725780633ee15bd1146100c157806356b9bbc5146101065780637174feb61461015c578063e5c7c889146101af575b600080fd5b34801561007e57600080fd5b506100bf60048036038101908080356000191690602001909291908035906020019092919080359060200190929190803590602001909291905050506101f4565b005b3480156100cd57600080fd5b506100f06004803603810190808035600019169060200190929190505050610408565b6040518082815260200191505060405180910390f35b34801561011257600080fd5b5061013f600480360381019080803560001916906020019092919080359060200190929190505050610430565b604051808381526020018281526020019250505060405180910390f35b34801561016857600080fd5b506101956004803603810190808035600019169060200190929190803590602001909291905050506104b2565b604051808215151515815260200191505060405180910390f35b3480156101bb57600080fd5b506101f2600480360381019080803560001916906020019092919080359060200190929190803590602001909291905050506105d1565b005b6000809054906101000a900473ffffffffffffffffffffffffffffffffffffffff1673ffffffffffffffffffffffffffffffffffffffff163373ffffffffffffffffffffffffffffffffffffffff161415156102de576040517f08c379a000000000000000000000000000000000000000000000000000000000815260040180806020018281038252602c8152602001807f4f6e6c7920706172656e7420636f6e74726163742063616e206164642074726181526020017f64696e6720706572696f6473000000000000000000000000000000000000000081525060400191505060405180910390fd5b808210806102ec5750600081145b1515610386576040517f08c379a00000000000000000000000000000000000000000000000000000000081526004018080602001828103825260228152602001807f53746172742064617465206d757374206265206265666f726520656e6420646181526020017f746500000000000000000000000000000000000000000000000000000000000081525060400191505060405180910390fd5b81600160008660001916600019168152602001908152602001600020848154811015156103af57fe5b90600052602060002090600202016000018190555080600160008660001916600019168152602001908152602001600020848154811015156103ed57fe5b90600052602060002090600202016001018190555050505050565b6000600160008360001916600019168152602001908152602001600020805490509050919050565b6000806001600085600019166000191681526020019081526020016000208381548110151561045b57fe5b9060005260206000209060020201600001546001600086600019166000191681526020019081526020016000208481548110151561049557fe5b906000526020600020906002020160010154915091509250929050565b60008060008091505b600160008660001916600019168152602001908152602001600020805490508210156105c45760006001600087600019166000191681526020019081526020016000208381548110151561050b57fe5b906000526020600020906002020160010154149050836001600087600019166000191681526020019081526020016000208381548110151561054957fe5b906000526020600020906002020160000154111580156105a95750836001600087600019166000191681526020019081526020016000208381548110151561058d57fe5b90600052602060002090600202016001015411806105a85750805b5b156105b757600192506105c9565b81806001019250506104bb565b600092505b505092915050565b6000809054906101000a900473ffffffffffffffffffffffffffffffffffffffff1673ffffffffffffffffffffffffffffffffffffffff163373ffffffffffffffffffffffffffffffffffffffff161415156106bb576040517f08c379a000000000000000000000000000000000000000000000000000000000815260040180806020018281038252602c8152602001807f4f6e6c7920706172656e7420636f6e74726163742063616e206164642074726181526020017f64696e6720706572696f6473000000000000000000000000000000000000000081525060400191505060405180910390fd5b808210806106c95750600081145b1515610763576040517f08c379a00000000000000000000000000000000000000000000000000000000081526004018080602001828103825260228152602001807f53746172742064617465206d757374206265206265666f726520656e6420646181526020017f746500000000000000000000000000000000000000000000000000000000000081525060400191505060405180910390fd5b6001600084600019166000191681526020019081526020016000206040805190810160405280848152602001838152509080600181540180825580915050906001820390600052602060002090600202016000909192909190915060008201518160000155602082015181600101555050505050505600a165627a7a72305820d91f680f6623ee92be2186b8a3b28b93a67ae98de9af675b99feac4acb966ea10029",
  "source": "pragma solidity ^0.4.24;\n\nimport \"./TradeRestriction.sol\";\n\n/// @title Restricts trading to a valid period of time, i.e start and expiry.\n/// @author Civic Ledger\ncontract TradingPeriodRestriction is TradeRestriction {\n\n    struct TradingPeriod {\n        uint256 startDate;\n        uint256 endDate;\n    }\n\n    mapping(bytes32 => TradingPeriod[]) _tradingPeriods;\n\n    /// @dev Adds a valid trading period for something identified by keyHash (can add multiple trading periods for a keyHash)\n    /// @param keyHash Key hash of the thing to be restricted\n    /// @param start Start date of the trading period\n    /// @param end End date (expiry) of the trading period\n    function addTradingPeriod(bytes32 keyHash, uint256 start, uint256 end) public onlyParentContract() {\n\n        require(start < end || end == 0, \"Start date must be before end date\");\n        _tradingPeriods[keyHash].push(TradingPeriod(start, end));\n    \n    }\n\n    /// @dev Updates a valid trading period with different start and end dates.\n    /// @param keyHash Key hash of the thing to be restricted\n    /// @param periodIndex Index of the trading period to change, as there can be multiple periods added\n    /// @param start New start date of the trading period\n    /// @param end New end date (expiry) of the trading period\n    function changeTradingPeriod(bytes32 keyHash, uint256 periodIndex, uint256 start, uint256 end) public onlyParentContract() {\n\n        require(start < end || end == 0, \"Start date must be before end date\");\n    \n        _tradingPeriods[keyHash][periodIndex].startDate = start;\n        _tradingPeriods[keyHash][periodIndex].endDate = end;\n    \n    }\n\n    /// @dev Retrieves a trading period related to keyHash at period index \n    /// @param keyHash Key hash of the thing being restricted\n    /// @param periodIndex Index of the trading period to retrieve\n    /// @return Start date and end date of the trading period\n    function tradingPeriodByKey(bytes32 keyHash, uint256 periodIndex) public view returns(uint256, uint256) {\n        return (\n            _tradingPeriods[keyHash][periodIndex].startDate,\n            _tradingPeriods[keyHash][periodIndex].endDate\n        );\n    }\n\n    /// @dev Retrieves the count of trading periods related to keyHash, to support iteration \n    /// @param keyHash Key hash of the thing being restricted\n    /// @return Count of trading period related to keyHash\n    function tradingPeriodCountByKey(bytes32 keyHash) public view returns(uint256) {\n        return  _tradingPeriods[keyHash].length;        \n    }\n\n\n    /// @dev Determines whether a party can trade based on their trading period \n    /// @param keyHash Key hash of the thing being restricted\n    /// @param onDate Date to test for validity\n    /// @return True if they have a valid trading period, false if they do not have a valid trading period\n    function canTrade(bytes32 keyHash, uint256 onDate) public view returns(bool) {\n\n        for (uint256 i = 0; i < _tradingPeriods[keyHash].length; i++) {\n\n            bool hasNoEndDate = _tradingPeriods[keyHash][i].endDate == 0;\n        \n            // is there a trading period that the onDate is within\n            if (_tradingPeriods[keyHash][i].startDate <= onDate && (_tradingPeriods[keyHash][i].endDate > onDate || hasNoEndDate)) {\n                return true;\n            }\n        \n        }\n        \n        return false;\n\n    }\n}",
  "sourcePath": "/Users/mattb/Code/waterledger/core/contracts/trade-restrictions/TradingPeriodRestriction.sol",
  "compiler": {
    "name": "solc",
    "version": "0.4.25+commit.59dbf8f1.Emscripten.clang"
  },
  "schemaVersion": "3.0.0-beta.1",
  "updatedAt": "2018-11-22T14:03:15.122Z"
}