{
  "contractName": "TradingZones",
  "abi": [
    {
      "constant": false,
      "inputs": [],
      "name": "renounceOwnership",
      "outputs": [],
      "payable": false,
      "stateMutability": "nonpayable",
      "type": "function",
      "signature": "0x715018a6"
    },
    {
      "constant": true,
      "inputs": [],
      "name": "owner",
      "outputs": [
        {
          "name": "",
          "type": "address"
        }
      ],
      "payable": false,
      "stateMutability": "view",
      "type": "function",
      "signature": "0x8da5cb5b"
    },
    {
      "constant": true,
      "inputs": [],
      "name": "isOwner",
      "outputs": [
        {
          "name": "",
          "type": "bool"
        }
      ],
      "payable": false,
      "stateMutability": "view",
      "type": "function",
      "signature": "0x8f32d59b"
    },
    {
      "constant": false,
      "inputs": [
        {
          "name": "newOwner",
          "type": "address"
        }
      ],
      "name": "transferOwnership",
      "outputs": [],
      "payable": false,
      "stateMutability": "nonpayable",
      "type": "function",
      "signature": "0xf2fde38b"
    },
    {
      "inputs": [],
      "payable": false,
      "stateMutability": "nonpayable",
      "type": "constructor",
      "signature": "constructor"
    },
    {
      "anonymous": false,
      "inputs": [
        {
          "indexed": true,
          "name": "previousOwner",
          "type": "address"
        }
      ],
      "name": "OwnershipRenounced",
      "type": "event",
      "signature": "0xf8df31144d9c2f0f6b59d69b8b98abd5459d07f2742c4df920b25aae33c64820"
    },
    {
      "anonymous": false,
      "inputs": [
        {
          "indexed": true,
          "name": "previousOwner",
          "type": "address"
        },
        {
          "indexed": true,
          "name": "newOwner",
          "type": "address"
        }
      ],
      "name": "OwnershipTransferred",
      "type": "event",
      "signature": "0x8be0079c531659141344cd1fd0a4f28419497f9722a3daafe3b4186f6b6457e0"
    },
    {
      "constant": true,
      "inputs": [
        {
          "name": "id",
          "type": "uint256"
        }
      ],
      "name": "isTradingZone",
      "outputs": [
        {
          "name": "",
          "type": "bool"
        }
      ],
      "payable": false,
      "stateMutability": "view",
      "type": "function",
      "signature": "0x65340b4c"
    },
    {
      "constant": true,
      "inputs": [
        {
          "name": "id",
          "type": "uint256"
        }
      ],
      "name": "tradingZoneById",
      "outputs": [
        {
          "name": "",
          "type": "string"
        },
        {
          "name": "",
          "type": "bool"
        }
      ],
      "payable": false,
      "stateMutability": "view",
      "type": "function",
      "signature": "0xea244361"
    },
    {
      "constant": true,
      "inputs": [],
      "name": "tradingZonesCount",
      "outputs": [
        {
          "name": "",
          "type": "uint256"
        }
      ],
      "payable": false,
      "stateMutability": "view",
      "type": "function",
      "signature": "0xab9c2d13"
    },
    {
      "constant": false,
      "inputs": [
        {
          "name": "name",
          "type": "string"
        }
      ],
      "name": "addTradingZone",
      "outputs": [],
      "payable": false,
      "stateMutability": "nonpayable",
      "type": "function",
      "signature": "0x5ef7bf74"
    }
  ],
  "bytecode": "0x608060405234801561001057600080fd5b50336000806101000a81548173ffffffffffffffffffffffffffffffffffffffff021916908373ffffffffffffffffffffffffffffffffffffffff1602179055506001604080519081016040528060206040519081016040528060008152508152602001600015158152509080600181540180825580915050906001820390600052602060002090600202016000909192909190915060008201518160000190805190602001906100c29291906100eb565b5060208201518160010160006101000a81548160ff021916908315150217905550505050610190565b828054600181600116156101000203166002900490600052602060002090601f016020900481019282601f1061012c57805160ff191683800117855561015a565b8280016001018555821561015a579182015b8281111561015957825182559160200191906001019061013e565b5b509050610167919061016b565b5090565b61018d91905b80821115610189576000816000905550600101610171565b5090565b90565b610aa78061019f6000396000f30060806040526004361061008e576000357c0100000000000000000000000000000000000000000000000000000000900463ffffffff1680635ef7bf741461009357806365340b4c146100fc578063715018a6146101415780638da5cb5b146101585780638f32d59b146101af578063ab9c2d13146101de578063ea24436114610209578063f2fde38b146102ba575b600080fd5b34801561009f57600080fd5b506100fa600480360381019080803590602001908201803590602001908080601f01602080910402602001604051908101604052809392919081815260200183838082843782019150505050505091929192905050506102fd565b005b34801561010857600080fd5b5061012760048036038101908080359060200190929190505050610427565b604051808215151515815260200191505060405180910390f35b34801561014d57600080fd5b50610156610472565b005b34801561016457600080fd5b5061016d6105bb565b604051808273ffffffffffffffffffffffffffffffffffffffff1673ffffffffffffffffffffffffffffffffffffffff16815260200191505060405180910390f35b3480156101bb57600080fd5b506101c46105e4565b604051808215151515815260200191505060405180910390f35b3480156101ea57600080fd5b506101f361063b565b6040518082815260200191505060405180910390f35b34801561021557600080fd5b5061023460048036038101908080359060200190929190505050610648565b604051808060200183151515158152602001828103825284818151815260200191508051906020019080838360005b8381101561027e578082015181840152602081019050610263565b50505050905090810190601f1680156102ab5780820380516001836020036101000a031916815260200191505b50935050505060405180910390f35b3480156102c657600080fd5b506102fb600480360381019080803573ffffffffffffffffffffffffffffffffffffffff169060200190929190505050610783565b005b6103056105e4565b151561039f576040517f08c379a00000000000000000000000000000000000000000000000000000000081526004018080602001828103825260268152602001807f4f6e6c7920746865206f776e65722063616e20706572666f726d20746869732081526020017f616374696f6e000000000000000000000000000000000000000000000000000081525060400191505060405180910390fd5b60016040805190810160405280838152602001600115158152509080600181540180825580915050906001820390600052602060002090600202016000909192909190915060008201518160000190805190602001906104009291906109ba565b5060208201518160010160006101000a81548160ff02191690831515021790555050505050565b6000600180549050821061043c57600061046b565b60018281548110151561044b57fe5b906000526020600020906002020160010160009054906101000a900460ff165b9050919050565b61047a6105e4565b1515610514576040517f08c379a00000000000000000000000000000000000000000000000000000000081526004018080602001828103825260268152602001807f4f6e6c7920746865206f776e65722063616e20706572666f726d20746869732081526020017f616374696f6e000000000000000000000000000000000000000000000000000081525060400191505060405180910390fd5b6000809054906101000a900473ffffffffffffffffffffffffffffffffffffffff1673ffffffffffffffffffffffffffffffffffffffff167ff8df31144d9c2f0f6b59d69b8b98abd5459d07f2742c4df920b25aae33c6482060405160405180910390a260008060006101000a81548173ffffffffffffffffffffffffffffffffffffffff021916908373ffffffffffffffffffffffffffffffffffffffff160217905550565b60008060009054906101000a900473ffffffffffffffffffffffffffffffffffffffff16905090565b60008060009054906101000a900473ffffffffffffffffffffffffffffffffffffffff1673ffffffffffffffffffffffffffffffffffffffff163373ffffffffffffffffffffffffffffffffffffffff1614905090565b6000600180549050905090565b60606000610654610a3a565b6001805490508410156106835760018481548110151561067057fe5b90600052602060002090600202016106a2565b6001600081548110151561069357fe5b90600052602060002090600202015b604080519081016040529081600082018054600181600116156101000203166002900480601f0160208091040260200160405190810160405280929190818152602001828054600181600116156101000203166002900480156107465780601f1061071b57610100808354040283529160200191610746565b820191906000526020600020905b81548152906001019060200180831161072957829003601f168201915b505050505081526020016001820160009054906101000a900460ff1615151515815250509050806000015181602001518191509250925050915091565b61078b6105e4565b1515610825576040517f08c379a00000000000000000000000000000000000000000000000000000000081526004018080602001828103825260268152602001807f4f6e6c7920746865206f776e65722063616e20706572666f726d20746869732081526020017f616374696f6e000000000000000000000000000000000000000000000000000081525060400191505060405180910390fd5b61082e81610831565b50565b600073ffffffffffffffffffffffffffffffffffffffff168173ffffffffffffffffffffffffffffffffffffffff16141515156108fc576040517f08c379a00000000000000000000000000000000000000000000000000000000081526004018080602001828103825260278152602001807f596f752063616e6e6f74207472616e7366657220746f20746865207a65726f2081526020017f616464726573730000000000000000000000000000000000000000000000000081525060400191505060405180910390fd5b8073ffffffffffffffffffffffffffffffffffffffff166000809054906101000a900473ffffffffffffffffffffffffffffffffffffffff1673ffffffffffffffffffffffffffffffffffffffff167f8be0079c531659141344cd1fd0a4f28419497f9722a3daafe3b4186f6b6457e060405160405180910390a3806000806101000a81548173ffffffffffffffffffffffffffffffffffffffff021916908373ffffffffffffffffffffffffffffffffffffffff16021790555050565b828054600181600116156101000203166002900490600052602060002090601f016020900481019282601f106109fb57805160ff1916838001178555610a29565b82800160010185558215610a29579182015b82811115610a28578251825591602001919060010190610a0d565b5b509050610a369190610a56565b5090565b6040805190810160405280606081526020016000151581525090565b610a7891905b80821115610a74576000816000905550600101610a5c565b5090565b905600a165627a7a72305820274cd9cfb00994f84d8adfa184dcb3247cb24362b0187ffbd6fc9821b9360fc70029",
  "source": "pragma solidity ^0.4.24;\n\nimport \"./Ownable.sol\";\n\n/// @title Stores details on water trading zones for a jurisdiction\n/// @author Civic Ledger\ncontract TradingZones is Ownable {\n\n    struct TradingZone {\n        string name;\n        bool exists;\n    }\n\n    TradingZone[] _tradingZones;\n\n    constructor() public {\n        _tradingZones.push(TradingZone(\"\", false));\n    }\n\n    /// @dev Tests whether the trading zone exists\n    /// @param id Id of the trading zone to test\n    /// @return True if trading zone exists, false otherwise\n    function isTradingZone(uint256 id) public view returns(bool) {\n        return id < _tradingZones.length ? _tradingZones[id].exists : false;\n    }\n\n    /// @dev Retrieves a trading zone by its id\n    /// @param id Id of the trading zone to return\n    /// @return Trading zone details\n    function tradingZoneById(uint256 id) public view returns(string, bool) {\n        TradingZone memory tradingZone = (id >= _tradingZones.length) ? _tradingZones[0] : _tradingZones[id];\n        return (\n            tradingZone.name,\n            tradingZone.exists\n        );\n    }\n\n    /// @dev Retrieves the number of trading zones registered\n    /// @return Trading zones count\n    function tradingZonesCount() public view returns(uint256) {\n        return _tradingZones.length;\n    }\n\n    /// @dev Registers a new trading zone\n    /// @param name Trading zone name\n    function addTradingZone(string name) public onlyOwner {\n        _tradingZones.push(TradingZone(name, true));\n    }\n}\n",
  "sourcePath": "/Users/mattb/Code/waterledger/core/contracts/TradingZones.sol",
  "compiler": {
    "name": "solc",
    "version": "0.4.25+commit.59dbf8f1.Emscripten.clang"
  },
  "schemaVersion": "3.0.0-beta.0",
  "updatedAt": "2018-11-22T22:45:03.256Z"
}