{
  "contractName": "WaterLicense",
  "abi": [
    {
      "inputs": [
        {
          "name": "usersContractAddress",
          "type": "address"
        },
        {
          "name": "rolesContractAddress",
          "type": "address"
        },
        {
          "name": "tradingZonesAddress",
          "type": "address"
        }
      ],
      "payable": false,
      "stateMutability": "nonpayable",
      "type": "constructor",
      "signature": "constructor"
    },
    {
      "constant": true,
      "inputs": [
        {
          "name": "id",
          "type": "uint256"
        }
      ],
      "name": "licenseById",
      "outputs": [
        {
          "name": "",
          "type": "address"
        },
        {
          "name": "",
          "type": "string"
        },
        {
          "name": "",
          "type": "uint256"
        },
        {
          "name": "",
          "type": "uint256"
        },
        {
          "name": "",
          "type": "string"
        },
        {
          "name": "",
          "type": "string"
        },
        {
          "name": "",
          "type": "uint256"
        },
        {
          "name": "",
          "type": "uint256"
        }
      ],
      "payable": false,
      "stateMutability": "view",
      "type": "function",
      "signature": "0x2271dfb9"
    },
    {
      "constant": true,
      "inputs": [],
      "name": "licenseCount",
      "outputs": [
        {
          "name": "",
          "type": "uint256"
        }
      ],
      "payable": false,
      "stateMutability": "view",
      "type": "function",
      "signature": "0x2fbccc27"
    },
    {
      "constant": false,
      "inputs": [
        {
          "name": "licenseeAddress",
          "type": "address"
        },
        {
          "name": "reference",
          "type": "string"
        },
        {
          "name": "tradingZoneId",
          "type": "uint256"
        },
        {
          "name": "startDate",
          "type": "uint256"
        },
        {
          "name": "endDate",
          "type": "uint256"
        },
        {
          "name": "administrativePlan",
          "type": "string"
        }
      ],
      "name": "issueLicense",
      "outputs": [],
      "payable": false,
      "stateMutability": "nonpayable",
      "type": "function",
      "signature": "0x0c7df0f2"
    },
    {
      "constant": false,
      "inputs": [
        {
          "name": "id",
          "type": "uint256"
        },
        {
          "name": "maxVolume",
          "type": "uint256"
        }
      ],
      "name": "addAllocation",
      "outputs": [],
      "payable": false,
      "stateMutability": "nonpayable",
      "type": "function",
      "signature": "0x9ac0d2c0"
    },
    {
      "constant": true,
      "inputs": [
        {
          "name": "id",
          "type": "uint256"
        }
      ],
      "name": "allocationById",
      "outputs": [
        {
          "name": "",
          "type": "uint256"
        }
      ],
      "payable": false,
      "stateMutability": "view",
      "type": "function",
      "signature": "0x3c3d37f8"
    },
    {
      "constant": true,
      "inputs": [
        {
          "name": "id",
          "type": "uint256"
        },
        {
          "name": "traderAddress",
          "type": "address"
        },
        {
          "name": "volume",
          "type": "uint256"
        }
      ],
      "name": "canTrade",
      "outputs": [
        {
          "name": "",
          "type": "bool"
        }
      ],
      "payable": false,
      "stateMutability": "view",
      "type": "function",
      "signature": "0xee0b7db6"
    }
  ],
  "bytecode": "0x60806040523480156200001157600080fd5b5060405160608062003371833981018060405281019080805190602001909291908051906020019092919080519060200190929190505050826000806101000a81548173ffffffffffffffffffffffffffffffffffffffff021916908373ffffffffffffffffffffffffffffffffffffffff16021790555081600160006101000a81548173ffffffffffffffffffffffffffffffffffffffff021916908373ffffffffffffffffffffffffffffffffffffffff16021790555080600260006101000a81548173ffffffffffffffffffffffffffffffffffffffff021916908373ffffffffffffffffffffffffffffffffffffffff16021790555062000115620001e4565b604051809103906000f08015801562000132573d6000803e3d6000fd5b50600360006101000a81548173ffffffffffffffffffffffffffffffffffffffff021916908373ffffffffffffffffffffffffffffffffffffffff1602179055506200017d620001f5565b604051809103906000f0801580156200019a573d6000803e3d6000fd5b50600460006101000a81548173ffffffffffffffffffffffffffffffffffffffff021916908373ffffffffffffffffffffffffffffffffffffffff16021790555050505062000206565b6040516108598062001d5483390190565b604051610dc480620025ad83390190565b611b3e80620002166000396000f300608060405260043610610078576000357c0100000000000000000000000000000000000000000000000000000000900463ffffffff1680630c7df0f21461007d5780632271dfb91461016a5780632fbccc27146103375780633c3d37f8146103625780639ac0d2c0146103a3578063ee0b7db6146103da575b600080fd5b34801561008957600080fd5b50610168600480360381019080803573ffffffffffffffffffffffffffffffffffffffff169060200190929190803590602001908201803590602001908080601f0160208091040260200160405190810160405280939291908181526020018383808284378201915050505050509192919290803590602001909291908035906020019092919080359060200190929190803590602001908201803590602001908080601f0160208091040260200160405190810160405280939291908181526020018383808284378201915050505050509192919290505050610449565b005b34801561017657600080fd5b5061019560048036038101908080359060200190929190505050610d0e565b604051808973ffffffffffffffffffffffffffffffffffffffff1673ffffffffffffffffffffffffffffffffffffffff16815260200180602001888152602001878152602001806020018060200186815260200185815260200184810384528b818151815260200191508051906020019080838360005b8381101561022757808201518184015260208101905061020c565b50505050905090810190601f1680156102545780820380516001836020036101000a031916815260200191505b50848103835288818151815260200191508051906020019080838360005b8381101561028d578082015181840152602081019050610272565b50505050905090810190601f1680156102ba5780820380516001836020036101000a031916815260200191505b50848103825287818151815260200191508051906020019080838360005b838110156102f35780820151818401526020810190506102d8565b50505050905090810190601f1680156103205780820380516001836020036101000a031916815260200191505b509b50505050505050505050505060405180910390f35b34801561034357600080fd5b5061034c61120b565b6040518082815260200191505060405180910390f35b34801561036e57600080fd5b5061038d60048036038101908080359060200190929190505050611218565b6040518082815260200191505060405180910390f35b3480156103af57600080fd5b506103d860048036038101908080359060200190929190803590602001909291905050506113cf565b005b3480156103e657600080fd5b5061042f60048036038101908080359060200190929190803573ffffffffffffffffffffffffffffffffffffffff16906020019092919080359060200190929190505050611717565b604051808215151515815260200191505060405180910390f35b600080600160009054906101000a900473ffffffffffffffffffffffffffffffffffffffff1673ffffffffffffffffffffffffffffffffffffffff1663a5b749d9336040518263ffffffff167c010000000000000000000000000000000000000000000000000000000002815260040180806020018373ffffffffffffffffffffffffffffffffffffffff1673ffffffffffffffffffffffffffffffffffffffff1681526020018281038252600e8152602001807f5761746572417574686f7269747900000000000000000000000000000000000081525060200192505050602060405180830381600087803b15801561054257600080fd5b505af1158015610556573d6000803e3d6000fd5b505050506040513d602081101561056c57600080fd5b81019080805190602001909291905050501515610617576040517f08c379a000000000000000000000000000000000000000000000000000000000815260040180806020018281038252602f8152602001807f4f6e6c7920776174657220617574686f7269746965732063616e20697373756581526020017f207761746572206c6963656e736573000000000000000000000000000000000081525060400191505060405180910390fd5b600073ffffffffffffffffffffffffffffffffffffffff168873ffffffffffffffffffffffffffffffffffffffff16141515156106e2576040517f08c379a000000000000000000000000000000000000000000000000000000000815260040180806020018281038252602f8152602001807f4d757374207370656369667920616e206164647265737320746f20697373756581526020017f20746865206c6963656e736520746f000000000000000000000000000000000081525060400191505060405180910390fd5b838510806106f05750600084145b151561078a576040517f08c379a000000000000000000000000000000000000000000000000000000000815260040180806020018281038252602a8152602001807f4c6963656e73652073746172742064617465206d757374206265206265666f7281526020017f6520656e6420646174650000000000000000000000000000000000000000000081525060400191505060405180910390fd5b600260009054906101000a900473ffffffffffffffffffffffffffffffffffffffff1673ffffffffffffffffffffffffffffffffffffffff166365340b4c876040518263ffffffff167c010000000000000000000000000000000000000000000000000000000002815260040180828152602001915050602060405180830381600087803b15801561081b57600080fd5b505af115801561082f573d6000803e3d6000fd5b505050506040513d602081101561084557600080fd5b810190808051906020019092919050505015156108f0576040517f08c379a00000000000000000000000000000000000000000000000000000000081526004018080602001828103825260308152602001807f54726164696e67207a6f6e65206964206973206e6f742061207265676973746581526020017f7265642074726164696e67207a6f6e650000000000000000000000000000000081525060400191505060405180910390fd5b6000809054906101000a900473ffffffffffffffffffffffffffffffffffffffff1673ffffffffffffffffffffffffffffffffffffffff1663989e5ea9336040518263ffffffff167c0100000000000000000000000000000000000000000000000000000000028152600401808273ffffffffffffffffffffffffffffffffffffffff1673ffffffffffffffffffffffffffffffffffffffff1681526020019150506040805180830381600087803b1580156109ab57600080fd5b505af11580156109bf573d6000803e3d6000fd5b505050506040513d60408110156109d557600080fd5b81019080805190602001909291908051906020019092919050505091509150801515610a8f576040517f08c379a00000000000000000000000000000000000000000000000000000000081526004018080602001828103825260288152602001807f576174657220617574686f72697479206973206e6f742061207265676973746581526020017f726564207573657200000000000000000000000000000000000000000000000081525060400191505060405180910390fd5b600560a0604051908101604052808a73ffffffffffffffffffffffffffffffffffffffff168152602001898152602001848152602001888152602001858152509080600181540180825580915050906001820390600052602060002090600502016000909192909190915060008201518160000160006101000a81548173ffffffffffffffffffffffffffffffffffffffff021916908373ffffffffffffffffffffffffffffffffffffffff1602179055506020820151816001019080519060200190610b5d929190611a27565b5060408201518160020155606082015181600301556080820151816004019080519060200190610b8e929190611a27565b50505050600360009054906101000a900473ffffffffffffffffffffffffffffffffffffffff1673ffffffffffffffffffffffffffffffffffffffff1663e5c7c88960016005805490500360405160200180807f57617465724c6963656e73650000000000000000000000000000000000000000815250600c018281526020019150506040516020818303038152906040526040518082805190602001908083835b602083101515610c555780518252602082019150602081019050602083039250610c30565b6001836020036101000a038019825116818451168082178552505050505050905001915050604051809103902087876040518463ffffffff167c01000000000000000000000000000000000000000000000000000000000281526004018084600019166000191681526020018381526020018281526020019350505050600060405180830381600087803b158015610cec57600080fd5b505af1158015610d00573d6000803e3d6000fd5b505050505050505050505050565b60006060600080606080600080610d23611aa7565b606060008060058d815481101515610d3757fe5b906000526020600020906005020160a060405190810160405290816000820160009054906101000a900473ffffffffffffffffffffffffffffffffffffffff1673ffffffffffffffffffffffffffffffffffffffff1673ffffffffffffffffffffffffffffffffffffffff168152602001600182018054600181600116156101000203166002900480601f016020809104026020016040519081016040528092919081815260200182805460018160011615610100020316600290048015610e405780601f10610e1557610100808354040283529160200191610e40565b820191906000526020600020905b815481529060010190602001808311610e2357829003601f168201915b505050505081526020016002820154815260200160038201548152602001600482018054600181600116156101000203166002900480601f016020809104026020016040519081016040528092919081815260200182805460018160011615610100020316600290048015610ef65780601f10610ecb57610100808354040283529160200191610ef6565b820191906000526020600020905b815481529060010190602001808311610ed957829003601f168201915b5050505050815250509350600260009054906101000a900473ffffffffffffffffffffffffffffffffffffffff1673ffffffffffffffffffffffffffffffffffffffff1663ea24436185606001516040518263ffffffff167c010000000000000000000000000000000000000000000000000000000002815260040180828152602001915050600060405180830381600087803b158015610f9657600080fd5b505af1158015610faa573d6000803e3d6000fd5b505050506040513d6000823e3d601f19601f820116820180604052506040811015610fd457600080fd5b810190808051640100000000811115610fec57600080fd5b8281019050602081018481111561100257600080fd5b815185600182028301116401000000008211171561101f57600080fd5b505092919060200180519060200190929190505050509250600360009054906101000a900473ffffffffffffffffffffffffffffffffffffffff1673ffffffffffffffffffffffffffffffffffffffff166356b9bbc58e60405160200180807f57617465724c6963656e73650000000000000000000000000000000000000000815250600c018281526020019150506040516020818303038152906040526040518082805190602001908083835b6020831015156110f257805182526020820191506020810190506020830392506110cd565b6001836020036101000a038019825116818451168082178552505050505050905001915050604051809103902060006040518363ffffffff167c0100000000000000000000000000000000000000000000000000000000028152600401808360001916600019168152602001828152602001925050506040805180830381600087803b15801561118157600080fd5b505af1158015611195573d6000803e3d6000fd5b505050506040513d60408110156111ab57600080fd5b81019080805190602001909291908051906020019092919050505091509150836000015184602001518560400151866060015186886080015187878696508292509b509b509b509b509b509b509b509b5050505050919395975091939597565b6000600580549050905090565b600080600460009054906101000a900473ffffffffffffffffffffffffffffffffffffffff1673ffffffffffffffffffffffffffffffffffffffff1663113815d98460405160200180807f57617465724c6963656e73650000000000000000000000000000000000000000815250600c018281526020019150506040516020818303038152906040526040518082805190602001908083835b6020831015156112d657805182526020820191506020810190506020830392506112b1565b6001836020036101000a03801982511681845116808217855250505050505090500191505060405180910390206040518263ffffffff167c010000000000000000000000000000000000000000000000000000000002815260040180826000191660001916815260200191505060a060405180830381600087803b15801561135d57600080fd5b505af1158015611371573d6000803e3d6000fd5b505050506040513d60a081101561138757600080fd5b81019080805190602001909291908051906020019092919080519060200190929190805190602001909291908051906020019092919050505050505091505080915050919050565b600160009054906101000a900473ffffffffffffffffffffffffffffffffffffffff1673ffffffffffffffffffffffffffffffffffffffff1663a5b749d9336040518263ffffffff167c010000000000000000000000000000000000000000000000000000000002815260040180806020018373ffffffffffffffffffffffffffffffffffffffff1673ffffffffffffffffffffffffffffffffffffffff1681526020018281038252600e8152602001807f5761746572417574686f7269747900000000000000000000000000000000000081525060200192505050602060405180830381600087803b1580156114c557600080fd5b505af11580156114d9573d6000803e3d6000fd5b505050506040513d60208110156114ef57600080fd5b8101908080519060200190929190505050151561159a576040517f08c379a000000000000000000000000000000000000000000000000000000000815260040180806020018281038252602f8152602001807f4f6e6c7920776174657220617574686f7269746965732063616e20697373756581526020017f207761746572206c6963656e736573000000000000000000000000000000000081525060400191505060405180910390fd5b600460009054906101000a900473ffffffffffffffffffffffffffffffffffffffff1673ffffffffffffffffffffffffffffffffffffffff1663b3bd108d8360405160200180807f57617465724c6963656e73650000000000000000000000000000000000000000815250600c018281526020019150506040516020818303038152906040526040518082805190602001908083835b6020831015156116555780518252602082019150602081019050602083039250611630565b6001836020036101000a03801982511681845116808217855250505050505090500191505060405180910390208360026040518463ffffffff167c01000000000000000000000000000000000000000000000000000000000281526004018084600019166000191681526020018381526020018260028111156116d457fe5b60ff1681526020019350505050600060405180830381600087803b1580156116fb57600080fd5b505af115801561170f573d6000803e3d6000fd5b505050505050565b600080600580549050851015156117315760009150611a1f565b8460405160200180807f57617465724c6963656e73650000000000000000000000000000000000000000815250600c018281526020019150506040516020818303038152906040526040518082805190602001908083835b6020831015156117ae5780518252602082019150602081019050602083039250611789565b6001836020036101000a038019825116818451168082178552505050505050905001915050604051809103902090506005858154811015156117ec57fe5b906000526020600020906005020160000160009054906101000a900473ffffffffffffffffffffffffffffffffffffffff1673ffffffffffffffffffffffffffffffffffffffff168473ffffffffffffffffffffffffffffffffffffffff161480156119305750600360009054906101000a900473ffffffffffffffffffffffffffffffffffffffff1673ffffffffffffffffffffffffffffffffffffffff16637174feb682426040518363ffffffff167c010000000000000000000000000000000000000000000000000000000002815260040180836000191660001916815260200182815260200192505050602060405180830381600087803b1580156118f457600080fd5b505af1158015611908573d6000803e3d6000fd5b505050506040513d602081101561191e57600080fd5b81019080805190602001909291905050505b8015611a1c5750600460009054906101000a900473ffffffffffffffffffffffffffffffffffffffff1673ffffffffffffffffffffffffffffffffffffffff16634f6acda08285426040518463ffffffff167c01000000000000000000000000000000000000000000000000000000000281526004018084600019166000191681526020018381526020018281526020019350505050602060405180830381600087803b1580156119e057600080fd5b505af11580156119f4573d6000803e3d6000fd5b505050506040513d6020811015611a0a57600080fd5b81019080805190602001909291905050505b91505b509392505050565b828054600181600116156101000203166002900490600052602060002090601f016020900481019282601f10611a6857805160ff1916838001178555611a96565b82800160010185558215611a96579182015b82811115611a95578251825591602001919060010190611a7a565b5b509050611aa39190611aed565b5090565b60a060405190810160405280600073ffffffffffffffffffffffffffffffffffffffff168152602001606081526020016000815260200160008152602001606081525090565b611b0f91905b80821115611b0b576000816000905550600101611af3565b5090565b905600a165627a7a723058203841c33acf281e05a25f1d7e676e12ef45e0db945734d6cbdfe7e2cb9daf4ff300296080604052336000806101000a81548173ffffffffffffffffffffffffffffffffffffffff021916908373ffffffffffffffffffffffffffffffffffffffff160217905550610806806100536000396000f30060806040526004361061006d576000357c0100000000000000000000000000000000000000000000000000000000900463ffffffff168063129c6c68146100725780633ee15bd1146100c157806356b9bbc5146101065780637174feb61461015c578063e5c7c889146101af575b600080fd5b34801561007e57600080fd5b506100bf60048036038101908080356000191690602001909291908035906020019092919080359060200190929190803590602001909291905050506101f4565b005b3480156100cd57600080fd5b506100f06004803603810190808035600019169060200190929190505050610408565b6040518082815260200191505060405180910390f35b34801561011257600080fd5b5061013f600480360381019080803560001916906020019092919080359060200190929190505050610430565b604051808381526020018281526020019250505060405180910390f35b34801561016857600080fd5b506101956004803603810190808035600019169060200190929190803590602001909291905050506104b2565b604051808215151515815260200191505060405180910390f35b3480156101bb57600080fd5b506101f2600480360381019080803560001916906020019092919080359060200190929190803590602001909291905050506105d1565b005b6000809054906101000a900473ffffffffffffffffffffffffffffffffffffffff1673ffffffffffffffffffffffffffffffffffffffff163373ffffffffffffffffffffffffffffffffffffffff161415156102de576040517f08c379a000000000000000000000000000000000000000000000000000000000815260040180806020018281038252602c8152602001807f4f6e6c7920706172656e7420636f6e74726163742063616e206164642074726181526020017f64696e6720706572696f6473000000000000000000000000000000000000000081525060400191505060405180910390fd5b808210806102ec5750600081145b1515610386576040517f08c379a00000000000000000000000000000000000000000000000000000000081526004018080602001828103825260228152602001807f53746172742064617465206d757374206265206265666f726520656e6420646181526020017f746500000000000000000000000000000000000000000000000000000000000081525060400191505060405180910390fd5b81600160008660001916600019168152602001908152602001600020848154811015156103af57fe5b90600052602060002090600202016000018190555080600160008660001916600019168152602001908152602001600020848154811015156103ed57fe5b90600052602060002090600202016001018190555050505050565b6000600160008360001916600019168152602001908152602001600020805490509050919050565b6000806001600085600019166000191681526020019081526020016000208381548110151561045b57fe5b9060005260206000209060020201600001546001600086600019166000191681526020019081526020016000208481548110151561049557fe5b906000526020600020906002020160010154915091509250929050565b60008060008091505b600160008660001916600019168152602001908152602001600020805490508210156105c45760006001600087600019166000191681526020019081526020016000208381548110151561050b57fe5b906000526020600020906002020160010154149050836001600087600019166000191681526020019081526020016000208381548110151561054957fe5b906000526020600020906002020160000154111580156105a95750836001600087600019166000191681526020019081526020016000208381548110151561058d57fe5b90600052602060002090600202016001015411806105a85750805b5b156105b757600192506105c9565b81806001019250506104bb565b600092505b505092915050565b6000809054906101000a900473ffffffffffffffffffffffffffffffffffffffff1673ffffffffffffffffffffffffffffffffffffffff163373ffffffffffffffffffffffffffffffffffffffff161415156106bb576040517f08c379a000000000000000000000000000000000000000000000000000000000815260040180806020018281038252602c8152602001807f4f6e6c7920706172656e7420636f6e74726163742063616e206164642074726181526020017f64696e6720706572696f6473000000000000000000000000000000000000000081525060400191505060405180910390fd5b808210806106c95750600081145b1515610763576040517f08c379a00000000000000000000000000000000000000000000000000000000081526004018080602001828103825260228152602001807f53746172742064617465206d757374206265206265666f726520656e6420646181526020017f746500000000000000000000000000000000000000000000000000000000000081525060400191505060405180910390fd5b6001600084600019166000191681526020019081526020016000206040805190810160405280848152602001838152509080600181540180825580915050906001820390600052602060002090600202016000909192909190915060008201518160000155602082015181600101555050505050505600a165627a7a72305820d91f680f6623ee92be2186b8a3b28b93a67ae98de9af675b99feac4acb966ea100296080604052336000806101000a81548173ffffffffffffffffffffffffffffffffffffffff021916908373ffffffffffffffffffffffffffffffffffffffff160217905550610d71806100536000396000f30060806040526004361061008e576000357c0100000000000000000000000000000000000000000000000000000000900463ffffffff1680630eb0a71214610093578063113815d91461010757806348f932541461018a5780634ddfa816146101d95780634f6acda01461023b578063b383055414610298578063b3bd108d146102dd578063fefe5b2614610325575b600080fd5b34801561009f57600080fd5b506100c2600480360381019080803560001916906020019092919050505061036a565b604051808581526020018460028111156100d857fe5b60ff1681526020018360ff1660ff1681526020018260ff1660ff16815260200194505050505060405180910390f35b34801561011357600080fd5b5061013660048036038101908080356000191690602001909291905050506103c1565b60405180866000191660001916815260200185815260200184600281111561015a57fe5b60ff1681526020018360ff1660ff1681526020018260ff1660ff1681526020019550505050505060405180910390f35b34801561019657600080fd5b506101c3600480360381019080803560001916906020019092919080359060200190929190505050610480565b6040518082815260200191505060405180910390f35b3480156101e557600080fd5b50610239600480360381019080803560001916906020019092919080359060200190929190803560ff169060200190929190803560ff169060200190929190803560ff1690602001909291905050506104af565b005b34801561024757600080fd5b5061027e60048036038101908080356000191690602001909291908035906020019092919080359060200190929190505050610666565b604051808215151515815260200191505060405180910390f35b3480156102a457600080fd5b506102c760048036038101908080356000191690602001909291905050506106c9565b6040518082815260200191505060405180910390f35b3480156102e957600080fd5b50610323600480360381019080803560001916906020019092919080359060200190929190803560ff1690602001909291905050506106e1565b005b34801561033157600080fd5b50610368600480360381019080803560001916906020019092919080359060200190929190803590602001909291905050506107df565b005b60016020528060005260406000206000915090508060000154908060010160009054906101000a900460ff16908060010160019054906101000a900460ff16908060010160029054906101000a900460ff16905084565b6000806000806000856001600088600019166000191681526020019081526020016000206000015460016000896000191660001916815260200190815260200160002060010160009054906101000a900460ff16600160008a6000191660001916815260200190815260200160002060010160019054906101000a900460ff16600160008b6000191660001916815260200190815260200160002060010160029054906101000a900460ff169450945094509450945091939590929450565b600060026000610490858561092d565b6000191660001916815260200190815260200160002054905092915050565b6000809054906101000a900473ffffffffffffffffffffffffffffffffffffffff1673ffffffffffffffffffffffffffffffffffffffff163373ffffffffffffffffffffffffffffffffffffffff16141515610599576040517f08c379a000000000000000000000000000000000000000000000000000000000815260040180806020018281038252602c8152602001807f4f6e6c7920706172656e7420636f6e74726163742063616e206164642074726181526020017f64696e6720706572696f6473000000000000000000000000000000000000000081525060400191505060405180910390fd5b6080604051908101604052808581526020018460028111156105b757fe5b81526020018360ff1681526020018260ff168152506001600087600019166000191681526020019081526020016000206000820151816000015560208201518160010160006101000a81548160ff0219169083600281111561061557fe5b021790555060408201518160010160016101000a81548160ff021916908360ff16021790555060608201518160010160026101000a81548160ff021916908360ff1602179055509050505050505050565b6000600160008560001916600019168152602001908152602001600020600001546106be8460026000610699898861092d565b6000191660001916815260200190815260200160002054610bc590919063ffffffff16565b111590509392505050565b60026020528060005260406000206000915090505481565b6000809054906101000a900473ffffffffffffffffffffffffffffffffffffffff1673ffffffffffffffffffffffffffffffffffffffff163373ffffffffffffffffffffffffffffffffffffffff161415156107cb576040517f08c379a000000000000000000000000000000000000000000000000000000000815260040180806020018281038252602c8152602001807f4f6e6c7920706172656e7420636f6e74726163742063616e206164642074726181526020017f64696e6720706572696f6473000000000000000000000000000000000000000081525060400191505060405180910390fd5b6107da8383836001600c6104af565b505050565b6000809054906101000a900473ffffffffffffffffffffffffffffffffffffffff1673ffffffffffffffffffffffffffffffffffffffff163373ffffffffffffffffffffffffffffffffffffffff161415156108c9576040517f08c379a000000000000000000000000000000000000000000000000000000000815260040180806020018281038252602c8152602001807f4f6e6c7920706172656e7420636f6e74726163742063616e206164642074726181526020017f64696e6720706572696f6473000000000000000000000000000000000000000081525060400191505060405180910390fd5b61090082600260006108db878661092d565b6000191660001916815260200190815260200160002054610bc590919063ffffffff16565b6002600061090e868561092d565b6000191660001916815260200190815260200160002081905550505050565b60006060610939610d0b565b6000806000806000600160008b6000191660001916815260200190815260200160002060806040519081016040529081600082015481526020016001820160009054906101000a900460ff16600281111561099057fe5b600281111561099b57fe5b81526020016001820160019054906101000a900460ff1660ff1660ff1681526020016001820160029054906101000a900460ff1660ff1660ff168152505095506109e489610be3565b945094509450600060028111156109f757fe5b86602001516002811115610a0757fe5b1415610a5457898585856040516020018085600019166000191681526020018481526020018381526020018281526020019450505050506040516020818303038152906040529650610b53565b60016002811115610a6157fe5b86602001516002811115610a7157fe5b1415610ab65789858560405160200180846000191660001916815260200183815260200182815260200193505050506040516020818303038152906040529650610b52565b600280811115610ac257fe5b86602001516002811115610ad257fe5b1415610b5157849150856040015160ff16866060015160ff16109050808015610b025750856060015160ff168411155b15610b1e57610b1b600183610c1290919063ffffffff16565b91505b89826040516020018083600019166000191681526020018281526020019250505060405160208183030381529060405296505b5b5b866040518082805190602001908083835b602083101515610b895780518252602082019150602081019050602083039250610b64565b6001836020036101000a038019825116818451168082178552505050505050905001915050604051809103902097505050505050505092915050565b6000808284019050838110151515610bd957fe5b8091505092915050565b6000806000610bff6201518085811515610bf957fe5b04610c2b565b8093508194508295505050509193909250565b6000828211151515610c2057fe5b818303905092915050565b600080600080600080600080600089955062253d8c62010bd9870101945062023ab185600402811515610c5a57fe5b059350600460038562023ab10201811515610c7157fe5b058503945062164b0960018601610fa002811515610c8b57fe5b059250601f6004846105b502811515610ca057fe5b05860301945061098f85605002811515610cb657fe5b05915060508261098f02811515610cc957fe5b0585039050600b82811515610cda57fe5b05945084600c0260028301039150848360318603606402010192508298508197508096505050505050509193909250565b6080604051908101604052806000815260200160006002811115610d2b57fe5b8152602001600060ff168152602001600060ff16815250905600a165627a7a72305820cd5cf59e20b705a2c95ef7f88fd38f25a63d010344d8cb7473b020f092b1880a0029",
  "source": "pragma solidity ^0.4.24;\n\nimport \"./Users.sol\";\nimport \"./Roles.sol\";\nimport \"./TradingZones.sol\";\nimport \"./trade-restrictions/TradingPeriodRestriction.sol\";\nimport \"./trade-restrictions/VolumeRestriction.sol\";\n\n/// @title Allows water authorities to issue/revoke water licenses and manage their entitlements/allocations.\n/// @author Civic Ledger\ncontract WaterLicense {\n\n    struct License {\n        address licenseeAddress;\n        string reference;\n        uint256 authorityUserId;\n        uint256 tradingZoneId;\n        string administrativePlan;\n    }\n\n    // Contract dependencies\n    Users private _usersContract;\n    Roles private _rolesContract;\n    TradingZones private _tradingZones;\n    TradingPeriodRestriction private _tradingPeriodRestriction;\n    VolumeRestriction private _volumeRestriction;\n\n    // License storage\n    License[] private _licenses;\n\n    constructor(address usersContractAddress, address rolesContractAddress, address tradingZonesAddress) public {\n        _usersContract = Users(usersContractAddress);\n        _rolesContract = Roles(rolesContractAddress);\n        _tradingZones = TradingZones(tradingZonesAddress);\n\n        _tradingPeriodRestriction = new TradingPeriodRestriction();\n        _volumeRestriction = new VolumeRestriction();\n    }\n\n    // @dev Ensures that only a water authority can access function\n    modifier onlyWaterAuthority() {\n        require(_rolesContract.hasRoleByAddress(\"WaterAuthority\", msg.sender), \"Only water authorities can issue water licenses\");\n        _;\n    }\n\n    /// @dev Retrieves a license by its index\n    /// @param id Id of the license to retrieve\n    /// @return License information\n    function licenseById(uint256 id) public view returns(address, string, uint256, uint256, string, string, uint256, uint256) {\n        License memory license = _licenses[id];\n        (string memory tradingZoneName, ) = _tradingZones.tradingZoneById(license.tradingZoneId);\n        (uint256 startDate, uint256 endDate) = _tradingPeriodRestriction.tradingPeriodByKey(keccak256(abi.encodePacked(\"WaterLicense\", id)), uint256(0));\n        return (\n            license.licenseeAddress,\n            license.reference,\n            license.authorityUserId,\n            license.tradingZoneId,\n            tradingZoneName,\n            license.administrativePlan,            \n            startDate, \n            endDate\n        );\n    }\n\n    /// @dev Retrieves the number of licenses that have been issued\n    /// @return License count\n    function licenseCount() public view returns(uint256) {\n        return _licenses.length;\n    }\n\n    /// @dev Issues a new water license to a licensee address\n    /// @param licenseeAddress The address of the licensee to issue a license to\n    /// @param reference A Government reference for the license\n    /// @param tradingZoneId The trading zone that they are entitled to trade within\n    /// @param startDate License validity start date - from this date they are able to trade\n    /// @param endDate License validity end date - after this date they are not able to trade (can be 0 which means no expiry)\n    /// @return License information\n    function issueLicense(address licenseeAddress, string reference, uint256 tradingZoneId, uint256 startDate, uint256 endDate, string administrativePlan) public onlyWaterAuthority {\n        require(licenseeAddress != address(0), \"Must specify an address to issue the license to\");\n        require(startDate < endDate || endDate == 0, \"License start date must be before end date\");\n        require(_tradingZones.isTradingZone(tradingZoneId), \"Trading zone id is not a registered trading zone\");\n\n        // get the authorities user id\n        (uint256 authorityUserId, bool authorityUserExists) = _usersContract.userByAddress(msg.sender);\n        require(authorityUserExists, \"Water authority is not a registered user\");\n\n        _licenses.push(License(licenseeAddress, reference, authorityUserId, tradingZoneId, administrativePlan));\n        _tradingPeriodRestriction.addTradingPeriod(keccak256(abi.encodePacked(\"WaterLicense\", _licenses.length - 1)), startDate, endDate);\n    }\n\n    /// @dev Adds an allocation to an existing water license\n    /// @param id The index of the license to add the allocation to\n    /// @param maxVolume Sets the max volume of water they are allocated to use\n    function addAllocation(uint256 id, uint256 maxVolume) onlyWaterAuthority public {\n        _volumeRestriction.addMaxVolume(keccak256(abi.encodePacked(\"WaterLicense\", id)), maxVolume, VolumeRestriction.VolumePeriodType.PerYear);\n    }\n\n    /// @dev Retrieves an allocation by id\n    /// @param id The id of the license to get the allocation\n    /// @return Allocation volume per year\n    function allocationById(uint256 id) public view returns(uint256) {\n        ( , uint256 volume, , , ) = _volumeRestriction.maxVolumeByKey(keccak256(abi.encodePacked(\"WaterLicense\", id)));\n        return volume;\n    }\n\n    /// @dev Checks whether a licensee can trade\n    /// @param id The index of the license to check trade restrictions for\n    /// @param traderAddress The address of the trader looking to trade using the licensee    \n    /// @param volume The volume of water they want to trade\n    /// @return Returns true if they are able to trade, returns false if not able to trade\n    function canTrade(uint256 id, address traderAddress, uint256 volume) public view returns(bool) {\n        if(id >= _licenses.length) {\n            return false;\n        }\n        bytes32 idHash = keccak256(abi.encodePacked(\"WaterLicense\", id));\n        return traderAddress == _licenses[id].licenseeAddress && _tradingPeriodRestriction.canTrade(idHash, now) && _volumeRestriction.canTrade(idHash, volume, now);\n    }\n    \n}",
  "sourcePath": "/Users/mattb/Code/waterledger/core/contracts/WaterLicense.sol",
  "compiler": {
    "name": "solc",
    "version": "0.4.25+commit.59dbf8f1.Emscripten.clang"
  },
  "schemaVersion": "3.0.0-beta.0",
  "updatedAt": "2018-11-22T22:45:03.385Z"
}